{
  "abi": [
    {
      "type": "constructor",
      "inputs": [
        {
          "name": "_owner",
          "type": "address",
          "internalType": "address"
        },
        {
          "name": "initialTokens",
          "type": "address[]",
          "internalType": "address[]"
        }
      ],
      "stateMutability": "nonpayable"
    },
    {
      "type": "function",
      "name": "allowToken",
      "inputs": [
        {
          "name": "token",
          "type": "address",
          "internalType": "address"
        }
      ],
      "outputs": [],
      "stateMutability": "nonpayable"
    },
    {
      "type": "function",
      "name": "allowedTokens",
      "inputs": [
        {
          "name": "",
          "type": "address",
          "internalType": "address"
        }
      ],
      "outputs": [
        {
          "name": "",
          "type": "bool",
          "internalType": "bool"
        }
      ],
      "stateMutability": "view"
    },
    {
      "type": "function",
      "name": "disallowToken",
      "inputs": [
        {
          "name": "token",
          "type": "address",
          "internalType": "address"
        }
      ],
      "outputs": [],
      "stateMutability": "nonpayable"
    },
    {
      "type": "function",
      "name": "explainFailure",
      "inputs": [
        {
          "name": "data",
          "type": "bytes",
          "internalType": "bytes"
        }
      ],
      "outputs": [
        {
          "name": "",
          "type": "string",
          "internalType": "string"
        }
      ],
      "stateMutability": "pure"
    },
    {
      "type": "function",
      "name": "getTokens",
      "inputs": [],
      "outputs": [
        {
          "name": "",
          "type": "address[]",
          "internalType": "address[]"
        }
      ],
      "stateMutability": "view"
    },
    {
      "type": "function",
      "name": "owner",
      "inputs": [],
      "outputs": [
        {
          "name": "",
          "type": "address",
          "internalType": "address"
        }
      ],
      "stateMutability": "view"
    },
    {
      "type": "function",
      "name": "tokenIndex",
      "inputs": [
        {
          "name": "",
          "type": "address",
          "internalType": "address"
        }
      ],
      "outputs": [
        {
          "name": "",
          "type": "uint256",
          "internalType": "uint256"
        }
      ],
      "stateMutability": "view"
    },
    {
      "type": "function",
      "name": "tokens",
      "inputs": [
        {
          "name": "",
          "type": "uint256",
          "internalType": "uint256"
        }
      ],
      "outputs": [
        {
          "name": "",
          "type": "address",
          "internalType": "address"
        }
      ],
      "stateMutability": "view"
    },
    {
      "type": "function",
      "name": "validate",
      "inputs": [
        {
          "name": "",
          "type": "address",
          "internalType": "address"
        },
        {
          "name": "trades",
          "type": "tuple[]",
          "internalType": "struct IBatchTrade.Trade[]",
          "components": [
            {
              "name": "exchangeName",
              "type": "string",
              "internalType": "string"
            },
            {
              "name": "from",
              "type": "address",
              "internalType": "address"
            },
            {
              "name": "fromAmount",
              "type": "uint256",
              "internalType": "uint256"
            },
            {
              "name": "to",
              "type": "address",
              "internalType": "address"
            },
            {
              "name": "minToReceiveBeforeFees",
              "type": "uint256",
              "internalType": "uint256"
            },
            {
              "name": "data",
              "type": "bytes",
              "internalType": "bytes"
            },
            {
              "name": "signature",
              "type": "bytes",
              "internalType": "bytes"
            }
          ]
        },
        {
          "name": "",
          "type": "tuple",
          "internalType": "struct IBatchTrade.BatchTradeConfig",
          "components": [
            {
              "name": "checkFeelessWallets",
              "type": "bool",
              "internalType": "bool"
            },
            {
              "name": "revertOnError",
              "type": "bool",
              "internalType": "bool"
            }
          ]
        }
      ],
      "outputs": [
        {
          "name": "",
          "type": "bool",
          "internalType": "bool"
        },
        {
          "name": "",
          "type": "bytes",
          "internalType": "bytes"
        }
      ],
      "stateMutability": "view"
    },
    {
      "type": "event",
      "name": "TokenAllowed",
      "inputs": [
        {
          "name": "token",
          "type": "address",
          "indexed": false,
          "internalType": "address"
        }
      ],
      "anonymous": false
    },
    {
      "type": "event",
      "name": "TokenDisallowed",
      "inputs": [
        {
          "name": "token",
          "type": "address",
          "indexed": false,
          "internalType": "address"
        }
      ],
      "anonymous": false
    },
    {
      "type": "error",
      "name": "AssetUniverseFromTokenNotAllowed",
      "inputs": [
        {
          "name": "token",
          "type": "address",
          "internalType": "address"
        }
      ]
    },
    {
      "type": "error",
      "name": "AssetUniverseToTokenNotAllowed",
      "inputs": [
        {
          "name": "token",
          "type": "address",
          "internalType": "address"
        }
      ]
    },
    {
      "type": "error",
      "name": "StringsInsufficientHexLength",
      "inputs": [
        {
          "name": "value",
          "type": "uint256",
          "internalType": "uint256"
        },
        {
          "name": "length",
          "type": "uint256",
          "internalType": "uint256"
        }
      ]
    }
  ],
  "bytecode": {
    "object": "0x60a0604052346100475761001a6100146101d2565b906105b5565b61002261004c565b6118ff61070b82396080518181816104d2015281816110c3015261134401526118ff90f35b610052565b60405190565b5f80fd5b601f801991011690565b634e487b7160e01b5f52604160045260245ffd5b9061007e90610056565b810190811060018060401b0382111761009657604052565b610060565b906100ae6100a761004c565b9283610074565b565b5f80fd5b5f80fd5b60018060a01b031690565b6100cc906100b8565b90565b6100d8816100c3565b036100df57565b5f80fd5b905051906100f0826100cf565b565b5f80fd5b60018060401b03811161010c5760208091020190565b610060565b5f80fd5b9092919261012a610125826100f6565b61009b565b938185526020808601920283019281841161016757915b83831061014e5750505050565b6020809161015c84866100e3565b815201920191610141565b610111565b9080601f8301121561018a5781602061018793519101610115565b90565b6100f2565b9190916040818403126101cd576101a8835f83016100e3565b92602082015160018060401b0381116101c8576101c5920161016c565b90565b6100b4565b6100b0565b6101f061200a803803806101e58161009b565b92833981019061018f565b9091565b90565b90565b61020e610209610213926101f4565b6101f7565b6100b8565b90565b61021f906101fa565b90565b60209181520190565b5f7f4f776e6572207a65726f00000000000000000000000000000000000000000000910152565b61025f600a602092610222565b6102688161022b565b0190565b6102819060208101905f818303910152610252565b90565b1561028b57565b61029361004c565b62461bcd60e51b8152806102a96004820161026c565b0390fd5b5190565b90565b6102c86102c36102cd926101f4565b6101f7565b6102b1565b90565b60016102dc91016102b1565b90565b634e487b7160e01b5f52603260045260245ffd5b906102fd826102ad565b81101561030e576020809102010190565b6102df565b61031d90516100c3565b90565b5f7f546f6b656e207a65726f00000000000000000000000000000000000000000000910152565b610354600a602092610222565b61035d81610320565b0190565b6103769060208101905f818303910152610347565b90565b1561038057565b61038861004c565b62461bcd60e51b81528061039e60048201610361565b0390fd5b6103b66103b16103bb926100b8565b6101f7565b6100b8565b90565b6103c7906103a2565b90565b6103d3906103be565b90565b906103e0906103ca565b5f5260205260405f2090565b5f1c90565b90565b610400610405916103ec565b6103f1565b90565b61041290546103f4565b90565b90565b5f5260205f2090565b5490565b61042e81610421565b82101561044857610440600191610418565b910201905f90565b6102df565b1b90565b9190600861047191029161046b60018060a01b038461044d565b9261044d565b9181191691161790565b90565b919061049461048f61049c936103ca565b61047b565b908354610451565b9055565b90815491680100000000000000008310156104d057826104c89160016104ce95018155610425565b9061047e565b565b610060565b5490565b5f1b90565b906104ea5f19916104d9565b9181191691161790565b61050861050361050d926102b1565b6101f7565b6102b1565b90565b90565b9061052861052361052f926104f4565b610510565b82546104de565b9055565b9061053d906103ca565b5f5260205260405f2090565b9061055560ff916104d9565b9181191691161790565b151590565b61056d9061055f565b90565b90565b9061058861058361058f92610564565b610570565b8254610549565b9055565b61059c906100c3565b9052565b91906105b3905f60208501940190610593565b565b9190916105dd816105d66105d06105cb5f610216565b6100c3565b916100c3565b1415610284565b6080526105e9826102ad565b906105f35f6102b4565b5b80610607610601856102b1565b916102b1565b1015610704576106c89061062461061f8683906102f3565b610313565b6106498161064261063c6106375f610216565b6100c3565b916100c3565b1415610379565b61065d610658600283906103d6565b610408565b61066f6106695f6102b4565b916102b1565b146106cd575b61068a60016106855f8490610533565b610573565b6106c07fbeceb48aeaa805aeae57be163cca6249077a18734e408a85aa74e875c4373809916106b761004c565b918291826105a0565b0390a16102d0565b6105f4565b6106e16106da6001610415565b82906104a0565b6106ff6106ee60016104d5565b6106fa600284906103d6565b610513565b610675565b5091505056fe60806040526004361015610013575b61080d565b61001d5f356100ac565b8063427f91a6146100a75780634f64b2be146100a257806357e86eeb1461009d5780638da5cb5b14610098578063a5bea16514610093578063aa6ca8081461008e578063b53472ef14610089578063e744092e146100845763e79767af0361000e576107da565b6107a5565b610703565b6106c9565b6105f4565b6104f4565b610487565b610312565b6101d4565b60e01c90565b60405190565b5f80fd5b5f80fd5b5f80fd5b60018060a01b031690565b6100d8906100c4565b90565b6100e4816100cf565b036100eb57565b5f80fd5b905035906100fc826100db565b565b9060208282031261011757610114915f016100ef565b90565b6100bc565b90565b61013361012e610138926100c4565b61011c565b6100c4565b90565b6101449061011f565b90565b6101509061013b565b90565b9061015d90610147565b5f5260205260405f2090565b1c90565b90565b6101809060086101859302610169565b61016d565b90565b906101939154610170565b90565b6101ac906101a76002915f92610153565b610188565b90565b90565b6101bb906101af565b9052565b91906101d2905f602085019401906101b2565b565b34610204576102006101ef6101ea3660046100fe565b610196565b6101f76100b2565b918291826101bf565b0390f35b6100b8565b610212816101af565b0361021957565b5f80fd5b9050359061022a82610209565b565b9060208282031261024557610242915f0161021d565b90565b6100bc565b634e487b7160e01b5f52603260045260245ffd5b5490565b5f5260205f2090565b6102748161025e565b82101561028e57610286600191610262565b910201905f90565b61024a565b60018060a01b031690565b6102ae9060086102b39302610169565b610293565b90565b906102c1915461029e565b90565b60016102cf8161025e565b8210156102ec576102e9916102e39161026b565b906102b6565b90565b5f80fd5b6102f9906100cf565b9052565b9190610310905f602085019401906102f0565b565b346103425761033e61032d61032836600461022c565b6102c4565b6103356100b2565b918291826102fd565b0390f35b6100b8565b5f80fd5b5f80fd5b5f80fd5b909182601f8301121561038d5781359167ffffffffffffffff831161038857602001926020830284011161038357565b61034f565b61034b565b610347565b5f80fd5b908160409103126103a45790565b610392565b906080828203126103f7576103c0815f84016100ef565b92602083013567ffffffffffffffff81116103f2576103e4836103ef928601610353565b939094604001610396565b90565b6100c0565b6100bc565b151590565b61040a906103fc565b9052565b5190565b60209181520190565b90825f9392825e0152565b601f801991011690565b61044f61045860209361045d936104468161040e565b93848093610412565b9586910161041b565b610426565b0190565b916104849261047760408201935f830190610401565b6020818403910152610430565b90565b346104bc576104a361049a3660046103a9565b92919091610961565b906104b86104af6100b2565b92839283610461565b0390f35b6100b8565b5f9103126104cb57565b6100bc565b7f000000000000000000000000000000000000000000000000000000000000000090565b34610524576105043660046104c1565b61052061050f6104d0565b6105176100b2565b918291826102fd565b0390f35b6100b8565b909182601f830112156105635781359167ffffffffffffffff831161055e57602001926001830284011161055957565b61034f565b61034b565b610347565b90602082820312610599575f82013567ffffffffffffffff8111610594576105909201610529565b9091565b6100c0565b6100bc565b5190565b60209181520190565b6105ca6105d36020936105d8936105c18161059e565b938480936105a2565b9586910161041b565b610426565b0190565b6105f19160208201915f8184039101526105ab565b90565b346106255761062161061061060a366004610568565b90610dfc565b6106186100b2565b918291826105dc565b0390f35b6100b8565b5190565b60209181520190565b60200190565b610646906100cf565b9052565b906106578160209361063d565b0190565b60200190565b9061067e6106786106718461062a565b809361062e565b92610637565b905f5b81811061068e5750505090565b9091926106a76106a1600192865161064a565b9461065b565b9101919091610681565b6106c69160208201915f818403910152610661565b90565b346106f9576106d93660046104c1565b6106f56106e461101b565b6106ec6100b2565b918291826106b1565b0390f35b6100b8565b5f0190565b346107315761071b6107163660046100fe565b611329565b6107236100b2565b8061072d816106fe565b0390f35b6100b8565b9061074090610147565b5f5260205260405f2090565b60ff1690565b6107629060086107679302610169565b61074c565b90565b906107759154610752565b90565b61078d906107885f915f92610736565b61076a565b90565b91906107a3905f60208501940190610401565b565b346107d5576107d16107c06107bb3660046100fe565b610778565b6107c86100b2565b91829182610790565b0390f35b6100b8565b34610808576107f26107ed3660046100fe565b611573565b6107fa6100b2565b80610804816106fe565b0390f35b6100b8565b5f80fd5b5f90565b606090565b5090565b90565b61083561083061083a9261081e565b61011c565b6101af565b90565b600161084991016101af565b90565b5f80fd5b903590600160e00381360303821215610867570190565b61084c565b908210156108865760206108839202810190610850565b90565b61024a565b35610895816100db565b90565b5f1c90565b6108a96108ae91610898565b61074c565b90565b6108bb905461089d565b90565b634e487b7160e01b5f52604160045260245ffd5b906108dc90610426565b810190811067ffffffffffffffff8211176108f657604052565b6108be565b9061090e6109076100b2565b92836108d2565b565b67ffffffffffffffff811161092e5761092a602091610426565b0190565b6108be565b9061094561094083610910565b6108fb565b918252565b6109535f610933565b90565b61095e61094a565b90565b509092915061096e610811565b50610977610815565b5061098381849061081a565b9261098d5f610821565b5b806109a161099b876101af565b916101af565b1015610acf576109d96109d36109ce5f6109c860206109c28989899161086c565b0161088b565b90610736565b6108b1565b156103fc565b610a7857610a0f610a09610a045f6109fe60606109f88989899161086c565b0161088b565b90610736565b6108b1565b156103fc565b610a2157610a1c9061083d565b61098e565b9350600491610a66610a4e6060610a48610a75955f99637110d8d160e01b9691909161086c565b0161088b565b610a566100b2565b94859360208501908152016102fd565b602082018103825203826108d2565b90565b9350600491610abd610aa56020610a9f610acc955f9963019ce33760e01b9691909161086c565b0161088b565b610aad6100b2565b94859360208501908152016102fd565b602082018103825203826108d2565b90565b5050509050600190610adf610956565b90565b606090565b5090565b90565b610b02610afd610b0792610aeb565b61011c565b6101af565b90565b610b1261094a565b90565b63ffffffff60e01b1690565b1b90565b90610b33610b3a9183610ae7565b9135610b15565b9060048110610b48575b5090565b610b609063ffffffff60e01b90600403600802610b21565b165f610b44565b5f80fd5b5f80fd5b90939293848311610b8f578411610b8a576001820201920390565b610b6b565b610b67565b91565b610ba0906100c4565b90565b610bac81610b97565b03610bb357565b5f80fd5b90503590610bc482610ba3565b565b90602082820312610bdf57610bdc915f01610bb7565b90565b6100bc565b610bed9061013b565b90565b610bf99061011f565b90565b610c10610c0b610c15926100c4565b61011c565b6101af565b90565b90565b610c2f610c2a610c3492610c18565b61011c565b6101af565b90565b905090565b60207f6c6f776564200000000000000000000000000000000000000000000000000000917f4173736574556e6976657273653a2066726f6d20746f6b656e206e6f7420616c5f8201520152565b610c9560268092610c37565b610c9e81610c3c565b0190565b610cc7610cbe92602092610cb58161059e565b94858093610c37565b9384910161041b565b0190565b90610cd8610cde92610c89565b90610ca2565b90565b90610d09610ced6100b2565b8093610cfd602083019182610ccb565b908103825203836108d2565b565b60207f7765642000000000000000000000000000000000000000000000000000000000917f4173736574556e6976657273653a20746f20746f6b656e206e6f7420616c6c6f5f8201520152565b610d6460248092610c37565b610d6d81610d0b565b0190565b90610d7e610d8492610d58565b90610ca2565b90565b90610daf610d936100b2565b8093610da3602083019182610d71565b908103825203836108d2565b565b5f7f4173736574556e6976657273653a20756e6b6e6f776e206572726f7200000000910152565b610de2601c610933565b90610def60208301610db1565b565b610df9610dd8565b90565b90610e05610ae2565b50610e11828290610ae7565b610e24610e1e6004610aee565b916101af565b10610f4757610e34828290610b25565b80610e4e610e4863019ce33760e01b610b15565b91610b15565b14610ee257610e6c610e66637110d8d160e01b610b15565b91610b15565b14610e7e575050610e7b610df1565b90565b610ec0610ebb610eb6610eae610ea8610eda95610edf9790610ea06004610aee565b908092610b6f565b90610b94565b810190610bc6565b610be4565b610bf0565b610ed4610ece601492610bfc565b91610c1b565b90611760565b610d87565b90565b50610f25610f20610f1b610f13610f0d610f3f95610f449790610f056004610aee565b908092610b6f565b90610b94565b810190610bc6565b610be4565b610bf0565b610f39610f33601492610bfc565b91610c1b565b90611760565b610ce1565b90565b5050610f51610b0a565b90565b606090565b60209181520190565b610f6e610f7391610898565b610293565b90565b610f809054610f62565b90565b60010190565b90610fa6610fa0610f998461025e565b8093610f59565b92610262565b905f5b818110610fb65750505090565b909192610fd6610fd0600192610fcb87610f76565b61064a565b94610f83565b9101919091610fa9565b90610fea91610f89565b90565b9061100d61100692610ffd6100b2565b93848092610fe0565b03836108d2565b565b61101890610fed565b90565b611023610f54565b5061102e600161100f565b90565b5f7f4f6e6c79206f776e657200000000000000000000000000000000000000000000910152565b611065600a6020926105a2565b61106e81611031565b0190565b6110879060208101905f818303910152611058565b90565b1561109157565b6110996100b2565b62461bcd60e51b8152806110af60048201611072565b0390fd5b6110f8906110f3336110ed6110e77f00000000000000000000000000000000000000000000000000000000000000006100cf565b916100cf565b1461108a565b611276565b565b61110661110b91610898565b61016d565b90565b61111890546110fa565b90565b90565b5f5260205f2090565b5490565b61113481611127565b82101561114e5761114660019161111e565b910201905f90565b61024a565b9190600861117391029161116d60018060a01b0384610b21565b92610b21565b9181191691161790565b90565b919061119661119161119e93610147565b61117d565b908354611153565b9055565b90815491680100000000000000008310156111d257826111ca9160016111d09501815561112b565b90611180565b565b6108be565b5f1b90565b906111e85f19916111d7565b9181191691161790565b61120661120161120b926101af565b61011c565b6101af565b90565b90565b9061122661122161122d926111f2565b61120e565b82546111dc565b9055565b9061123d60ff916111d7565b9181191691161790565b611250906103fc565b90565b90565b9061126b61126661127292611247565b611253565b8254611231565b9055565b61128a61128560028390610153565b61110e565b61129c6112965f610821565b916101af565b146112f2575b6112b760016112b25f8490610736565b611256565b6112ed7fbeceb48aeaa805aeae57be163cca6249077a18734e408a85aa74e875c4373809916112e46100b2565b918291826102fd565b0390a1565b6113066112ff600161111b565b82906111a2565b611324611313600161025e565b61131f60028490610153565b611211565b6112a2565b611332906110b3565b565b611379906113743361136e6113687f00000000000000000000000000000000000000000000000000000000000000006100cf565b916100cf565b1461108a565b61142e565b565b90565b61139261138d6113979261137b565b61011c565b6101af565b90565b634e487b7160e01b5f52601160045260245ffd5b6113bd6113c3919392936101af565b926101af565b82039182116113ce57565b61139a565b634e487b7160e01b5f52603160045260245ffd5b5f90565b6113fd916113f76113e7565b91611180565b565b61140881611127565b8015611429576001900390611426611420838361112b565b906113eb565b55565b6113d3565b6114425f61143d5f8490610736565b611256565b61145661145160028390610153565b61110e565b806114696114635f610821565b916101af565b036114ab575b506114a67feaa9136602e3b70a4e689b5b6f55bda25ca62b917d839c0ff87f5902387f77b99161149d6100b2565b918291826102fd565b0390a1565b6114bf816114b9600161137e565b906113ae565b6114dc6114cc600161025e565b6114d6600161137e565b906113ae565b816114ef6114e9836101af565b916101af565b0361152d575b50505061150a611505600161111b565b6113ff565b6115276115165f610821565b61152260028490610153565b611211565b5f61146f565b61156b9261155e61154b61154561156694600161026b565b906102b6565b936115588591600161026b565b90611180565b916002610153565b611211565b5f80806114f5565b61157c90611334565b565b90565b61159561159061159a9261157e565b61011c565b6101af565b90565b6115ac6115b2919392936101af565b926101af565b916115be8382026101af565b9281840414901517156115cd57565b61139a565b6115e16115e7919392936101af565b926101af565b82018092116115f257565b61139a565b67ffffffffffffffff811161161557611611602091610426565b0190565b6108be565b9061162c611627836115f7565b6108fb565b918252565b369037565b9061165b6116438361161a565b9260208061165186936115f7565b9201910390611631565b565b600360fc1b90565b9061166f8261040e565b81101561168157600160209102010190565b61024a565b600f60fb1b90565b611697906101af565b5f81146116a5576001900390565b61139a565b6f181899199a1a9b1b9c1cb0b131b232b360811b90565b6116c96116aa565b90565b90565b6116e36116de6116e8926116cc565b61011c565b6101af565b90565b60f81b90565b60ff1690565b61170b61170661171092610aeb565b61011c565b6116f1565b90565b6117329061172c611726611737946116f1565b916101af565b90610169565b6101af565b90565b91602061175b92949361175460408201965f8301906101b2565b01906101b2565b565b90565b90611769610ae2565b50819261179b61179661178660026117818691611581565b61159d565b6117906002611581565b906115d2565b611636565b916117a461165d565b6117bb846117b55f935f1a93610821565b90611665565b536117c4611686565b6117dc846117d66001935f1a9361137e565b90611665565b536118046117f460026117ef8491611581565b61159d565b6117fe600161137e565b906115d2565b945b8561181a611814600161137e565b916101af565b1115611880576118286116c1565b81611833600f6116cf565b1691601083101561187b5761184f61186f92611875941a6116eb565b61185e87918a905f1a92611665565b5361186960046116f7565b90611713565b9561168e565b94611806565b61024a565b9092939194506118986118925f610821565b916101af565b036118ab5750506118a89061175d565b90565b6118c55f92839263e22e27eb60e01b84526004840161173a565b0390fdfea26469706673582212201bc80876bf0dbd97dffd24267a4662943ce08d92626ef892469f0282bad8788a64736f6c634300081a0033",
    "linkReferences": {}
  },
  "methodIdentifiers": {
    "allowToken(address)": "b53472ef",
    "allowedTokens(address)": "e744092e",
    "disallowToken(address)": "e79767af",
    "explainFailure(bytes)": "a5bea165",
    "getTokens()": "aa6ca808",
    "owner()": "8da5cb5b",
    "tokenIndex(address)": "427f91a6",
    "tokens(uint256)": "4f64b2be",
    "validate(address,(string,address,uint256,address,uint256,bytes,bytes)[],(bool,bool))": "57e86eeb"
  },
  "id": 58
}