{
  "abi": [
    {
      "type": "constructor",
      "inputs": [
        {
          "name": "_owner",
          "type": "address",
          "internalType": "address"
        },
        {
          "name": "_feedRegistry",
          "type": "address",
          "internalType": "address"
        },
        {
          "name": "_maxSlippageBps",
          "type": "uint256",
          "internalType": "uint256"
        }
      ],
      "stateMutability": "nonpayable"
    },
    {
      "type": "function",
      "name": "explainFailure",
      "inputs": [
        {
          "name": "data",
          "type": "bytes",
          "internalType": "bytes"
        }
      ],
      "outputs": [
        {
          "name": "",
          "type": "string",
          "internalType": "string"
        }
      ],
      "stateMutability": "pure"
    },
    {
      "type": "function",
      "name": "feedRegistry",
      "inputs": [],
      "outputs": [
        {
          "name": "",
          "type": "address",
          "internalType": "address"
        }
      ],
      "stateMutability": "view"
    },
    {
      "type": "function",
      "name": "maxSlippageBps",
      "inputs": [],
      "outputs": [
        {
          "name": "",
          "type": "uint256",
          "internalType": "uint256"
        }
      ],
      "stateMutability": "view"
    },
    {
      "type": "function",
      "name": "owner",
      "inputs": [],
      "outputs": [
        {
          "name": "",
          "type": "address",
          "internalType": "address"
        }
      ],
      "stateMutability": "view"
    },
    {
      "type": "function",
      "name": "validate",
      "inputs": [
        {
          "name": "",
          "type": "address",
          "internalType": "address"
        },
        {
          "name": "trades",
          "type": "tuple[]",
          "internalType": "struct IBatchTrade.Trade[]",
          "components": [
            {
              "name": "exchangeName",
              "type": "string",
              "internalType": "string"
            },
            {
              "name": "from",
              "type": "address",
              "internalType": "address"
            },
            {
              "name": "fromAmount",
              "type": "uint256",
              "internalType": "uint256"
            },
            {
              "name": "to",
              "type": "address",
              "internalType": "address"
            },
            {
              "name": "minToReceiveBeforeFees",
              "type": "uint256",
              "internalType": "uint256"
            },
            {
              "name": "data",
              "type": "bytes",
              "internalType": "bytes"
            },
            {
              "name": "signature",
              "type": "bytes",
              "internalType": "bytes"
            }
          ]
        },
        {
          "name": "",
          "type": "tuple",
          "internalType": "struct IBatchTrade.BatchTradeConfig",
          "components": [
            {
              "name": "checkFeelessWallets",
              "type": "bool",
              "internalType": "bool"
            },
            {
              "name": "revertOnError",
              "type": "bool",
              "internalType": "bool"
            }
          ]
        }
      ],
      "outputs": [
        {
          "name": "",
          "type": "bool",
          "internalType": "bool"
        },
        {
          "name": "",
          "type": "bytes",
          "internalType": "bytes"
        }
      ],
      "stateMutability": "view"
    },
    {
      "type": "error",
      "name": "SlippageFeedMissing",
      "inputs": [
        {
          "name": "tradeIndex",
          "type": "uint256",
          "internalType": "uint256"
        },
        {
          "name": "token",
          "type": "address",
          "internalType": "address"
        }
      ]
    },
    {
      "type": "error",
      "name": "SlippageMinToReceiveTooLow",
      "inputs": [
        {
          "name": "tradeIndex",
          "type": "uint256",
          "internalType": "uint256"
        },
        {
          "name": "minToReceive",
          "type": "uint256",
          "internalType": "uint256"
        },
        {
          "name": "minAllowed",
          "type": "uint256",
          "internalType": "uint256"
        }
      ]
    },
    {
      "type": "error",
      "name": "StringsInsufficientHexLength",
      "inputs": [
        {
          "name": "value",
          "type": "uint256",
          "internalType": "uint256"
        },
        {
          "name": "length",
          "type": "uint256",
          "internalType": "uint256"
        }
      ]
    }
  ],
  "bytecode": {
    "object": "0x60e0604052346100595761001a610014610160565b9161035f565b61002261005e565b61208d6103d4823960805181818161041e0152610ff3015260a05181610249015260c0518181816102c401526116bf015261208d90f35b610064565b60405190565b5f80fd5b601f801991011690565b634e487b7160e01b5f52604160045260245ffd5b9061009090610068565b810190811060018060401b038211176100a857604052565b610072565b906100c06100b961005e565b9283610086565b565b5f80fd5b60018060a01b031690565b6100da906100c6565b90565b6100e6816100d1565b036100ed57565b5f80fd5b905051906100fe826100dd565b565b90565b61010c81610100565b0361011357565b5f80fd5b9050519061012482610103565b565b909160608284031261015b57610158610141845f85016100f1565b9361014f81602086016100f1565b93604001610117565b90565b6100c2565b61017e61246180380380610173816100ad565b928339810190610126565b909192565b90565b90565b61019d6101986101a292610183565b610186565b6100c6565b90565b6101ae90610189565b90565b60209181520190565b5f7f4f776e6572207a65726f00000000000000000000000000000000000000000000910152565b6101ee600a6020926101b1565b6101f7816101ba565b0190565b6102109060208101905f8183039101526101e1565b90565b1561021a57565b61022261005e565b62461bcd60e51b815280610238600482016101fb565b0390fd5b5f7f5265676973747279207a65726f00000000000000000000000000000000000000910152565b610270600d6020926101b1565b6102798161023c565b0190565b6102929060208101905f818303910152610263565b90565b1561029c57565b6102a461005e565b62461bcd60e51b8152806102ba6004820161027d565b0390fd5b90565b6102d56102d06102da926102be565b610186565b610100565b90565b5f7f536c69707061676520746f6f2068696768000000000000000000000000000000910152565b61031160116020926101b1565b61031a816102dd565b0190565b6103339060208101905f818303910152610304565b90565b1561033d57565b61034561005e565b62461bcd60e51b81528061035b6004820161031e565b0390fd5b6103848161037d6103776103725f6101a5565b6100d1565b916100d1565b1415610213565b6103a9826103a261039c6103975f6101a5565b6100d1565b916100d1565b1415610295565b6103c8836103c16103bb6127106102c1565b91610100565b1115610336565b60a05260c05260805256fe60806040526004361015610013575b61049a565b61001d5f3561006c565b806357e86eeb146100675780638da5cb5b1461006257806390238c391461005d578063a5bea165146100585763c4aa73950361000e57610465565b6103e6565b6102e6565b61028d565b6101fe565b60e01c90565b60405190565b5f80fd5b5f80fd5b5f80fd5b60018060a01b031690565b61009890610084565b90565b6100a48161008f565b036100ab57565b5f80fd5b905035906100bc8261009b565b565b5f80fd5b5f80fd5b5f80fd5b909182601f830112156101045781359167ffffffffffffffff83116100ff5760200192602083028401116100fa57565b6100c6565b6100c2565b6100be565b5f80fd5b9081604091031261011b5790565b610109565b9060808282031261016e57610137815f84016100af565b92602083013567ffffffffffffffff81116101695761015b836101669286016100ca565b93909460400161010d565b90565b610080565b61007c565b151590565b61018190610173565b9052565b5190565b60209181520190565b90825f9392825e0152565b601f801991011690565b6101c66101cf6020936101d4936101bd81610185565b93848093610189565b95869101610192565b61019d565b0190565b916101fb926101ee60408201935f830190610178565b60208184039101526101a7565b90565b346102335761021a610211366004610120565b929190916105d2565b9061022f610226610072565b928392836101d8565b0390f35b610078565b5f91031261024257565b61007c565b7f000000000000000000000000000000000000000000000000000000000000000090565b6102749061008f565b9052565b919061028b905f6020850194019061026b565b565b346102bd5761029d366004610238565b6102b96102a8610247565b6102b0610072565b91829182610278565b0390f35b610078565b7f000000000000000000000000000000000000000000000000000000000000000090565b34610316576102f6366004610238565b6103126103016102c2565b610309610072565b91829182610278565b0390f35b610078565b909182601f830112156103555781359167ffffffffffffffff831161035057602001926001830284011161034b57565b6100c6565b6100c2565b6100be565b9060208282031261038b575f82013567ffffffffffffffff811161038657610382920161031b565b9091565b610080565b61007c565b5190565b60209181520190565b6103bc6103c56020936103ca936103b381610390565b93848093610394565b95869101610192565b61019d565b0190565b6103e39160208201915f81840391015261039d565b90565b34610417576104136104026103fc36600461035a565b90610a2f565b61040a610072565b918291826103ce565b0390f35b610078565b7f000000000000000000000000000000000000000000000000000000000000000090565b90565b61044c90610440565b9052565b9190610463905f60208501940190610443565b565b3461049557610475366004610238565b61049161048061041c565b610488610072565b91829182610450565b0390f35b610078565b5f80fd5b5f90565b606090565b5090565b90565b90565b6104c56104c06104ca926104ab565b6104ae565b610440565b90565b60016104d99101610440565b90565b634e487b7160e01b5f52603260045260245ffd5b5f80fd5b903590600160e0038136030382121561050b570190565b6104f0565b9082101561052a57602061052792028101906104f4565b90565b6104dc565b634e487b7160e01b5f52604160045260245ffd5b9061054d9061019d565b810190811067ffffffffffffffff82111761056757604052565b61052f565b9061057f610578610072565b9283610543565b565b67ffffffffffffffff811161059f5761059b60209161019d565b0190565b61052f565b906105b66105b183610581565b61056c565b918252565b6105c45f6105a4565b90565b6105cf6105bb565b90565b5091506105dd61049e565b506105e66104a2565b506105f28282906104a7565b916105fc5f6104b1565b5b8061061061060a86610440565b91610440565b10156106555761063761062f61062884868591610510565b8390610e0c565b919015610173565b61064a5750610645906104cd565b6105fd565b9493505050505f9190565b505050506001906106646105c7565b90565b606090565b5090565b90565b61068761068261068c92610670565b6104ae565b610440565b90565b6106976105bb565b90565b63ffffffff60e01b1690565b1b90565b906106b86106bf918361066c565b913561069a565b90600481106106cd575b5090565b6106e59063ffffffff60e01b906004036008026106a6565b165f6106c9565b5f80fd5b5f80fd5b9093929384831161071457841161070f576001820201920390565b6106f0565b6106ec565b91565b61072581610440565b0361072c57565b5f80fd5b9050359061073d8261071c565b565b61074890610084565b90565b6107548161073f565b0361075b57565b5f80fd5b9050359061076c8261074b565b565b9190604083820312610796578061078a610793925f8601610730565b9360200161075f565b90565b61007c565b6107af6107aa6107b492610084565b6104ae565b610084565b90565b6107c09061079b565b90565b6107cc906107b7565b90565b6107d89061079b565b90565b6107ef6107ea6107f492610084565b6104ae565b610440565b90565b90565b61080e610809610813926107f7565b6104ae565b610440565b90565b7f536c6970706167653a20747261646520000000000000000000000000000000009052565b905090565b61086561085c9260209261085381610390565b9485809361083b565b93849101610192565b0190565b7f2066656564206d697373696e6720666f7220746f6b656e2000000000000000009052565b6108ab6108bb939260106018936108a481610816565b0190610840565b6108b481610869565b0190610840565b90565b6108dd92916108e9916108cf610072565b94859260208401928361088e565b90810382520383610543565b565b90916060828403126109205761091d610906845f8501610730565b936109148160208601610730565b93604001610730565b90565b61007c565b7f206d696e546f52656365697665200000000000000000000000000000000000009052565b7f2062656c6f7720000000000000000000000000000000000000000000000000009052565b6109b29392600e61099260079460106109a29561098b81610816565b0190610840565b61099b81610925565b0190610840565b6109ab8161094a565b0190610840565b90565b906109e2919392936109d66109c8610072565b95869360208501938461096f565b90810382520383610543565b565b5f7f536c6970706167653a20756e6b6e6f776e206572726f72000000000000000000910152565b610a1560176105a4565b90610a22602083016109e4565b565b610a2c610a0b565b90565b90610a38610667565b50610a4482829061066c565b610a57610a516004610673565b91610440565b10610b7c57610a678282906106aa565b80610a81610a7b631f9c855f60e21b61069a565b9161069a565b14610b0957610a9f610a99630385c3b560e41b61069a565b9161069a565b14610ab1575050610aae610a24565b90565b610af4610b00610ae9610ae1610adb610afa95610b069790610ad36004610673565b9080926106f4565b90610719565b8101906108eb565b949193909493611283565b93611283565b91611283565b916109b5565b90565b50610b73610b59610b53610b45610b3d610b37610b4d96610b799890610b2f6004610673565b9080926106f4565b90610719565b81019061076e565b9490946107c3565b93611283565b926107cf565b610b6d610b676014926107db565b916107fa565b906114d2565b906108be565b90565b5050610b8661068f565b90565b35610b938161009b565b90565b610b9f906107b7565b90565b610bb6610bb1610bbb926104ab565b6104ae565b610084565b90565b610bc790610ba2565b90565b916020610beb929493610be460408201965f830190610443565b019061026b565b565b610bf69061079b565b90565b610c0290610bed565b90565b610c0e906107b7565b90565b60e01b90565b60ff1690565b610c2681610c17565b03610c2d57565b5f80fd5b90505190610c3e82610c1d565b565b90602082820312610c5957610c56915f01610c31565b90565b61007c565b5f0190565b610c6b610072565b3d5f823e3d90fd5b610c87610c82610c8c92610c17565b6104ae565b610440565b90565b35610c998161071c565b90565b90565b610cb3610cae610cb892610c9c565b6104ae565b610440565b90565b634e487b7160e01b5f52601160045260245ffd5b610cd890610440565b604d8111610ce657600a0a90565b610cbb565b610cf7610cfd91610c17565b91610c17565b90039060ff8211610d0a57565b610cbb565b610d1890610c17565b604d8111610d2657600a0a90565b610cbb565b610d3a610d4091939293610440565b92610440565b91610d4c838202610440565b928184041490151715610d5b57565b610cbb565b634e487b7160e01b5f52601260045260245ffd5b610d80610d8691610440565b91610440565b908115610d91570490565b610d60565b90565b610dad610da8610db292610d96565b6104ae565b610440565b90565b610dc4610dca91939293610440565b92610440565b8203918211610dd557565b610cbb565b604090610e03610e0a9496959396610df960608401985f850190610443565b6020830190610443565b0190610443565b565b9190610e1661049e565b50610e1f6104a2565b50610e34610e2f60208501610b89565b6116a8565b610e48610e4360608601610b89565b6116a8565b90610e5281610b96565b610e6c610e66610e615f610bbe565b61008f565b9161008f565b146111a857610e7a82610b96565b610e94610e8e610e895f610bbe565b61008f565b9161008f565b1461115b57610ee791610ea9610eb2926118ab565b929092916118ab565b92906020610ed1610ecc610ec7838c01610b89565b610bf9565b610c05565b63313ce56790610edf610072565b978892610c11565b82528180610ef760048201610c5e565b03915afa94851561115657610f4c95610f17915f91611128575b50610c73565b906020610f36610f31610f2c60608d01610b89565b610bf9565b610c05565b63313ce56790610f44610072565b988992610c11565b82528180610f5c60048201610c5e565b03915afa801561112357610fa3610fb0948b94610f9d610f966040610f8f610fa99761102e9e5f916110f5575b50610c73565b9801610c8f565b9291610ccf565b91611a8b565b92610ccf565b9091611a8b565b9181610fc4610fbe83610c17565b91610c17565b115f146110b157610fdc610fe191610fe79493610ceb565b610d0f565b90610d74565b5b61101d6127106110187f000000000000000000000000000000000000000000000000000000000000000091610d99565b610db5565b611028612710610d99565b91611a8b565b9261103b60808201610c8f565b61104d61104786610440565b91610440565b1061106457505090506001906110616105c7565b90565b60049161109f6110ae925f966110856080630385c3b560e41b959301610c8f565b909161108f610072565b9687956020870190815201610dda565b60208201810382520382610543565b90565b90816110c56110bf83610c17565b91610c17565b116110d2575b5050610fe8565b6110e36110e8916110ee9493610ceb565b610d0f565b90610d2b565b5f806110cb565b611116915060203d811161111c575b61110e8183610543565b810190610c40565b5f610f89565b503d611104565b610c63565b611149915060203d811161114f575b6111418183610543565b810190610c40565b5f610f11565b503d611137565b610c63565b50506111a56004916111965f9561117d6060631f9c855f60e21b949201610b89565b90611186610072565b9586946020860190815201610bca565b60208201810382520382610543565b90565b50506111f26004916111e35f956111ca6020631f9c855f60e21b949201610b89565b906111d3610072565b9586946020860190815201610bca565b60208201810382520382610543565b90565b90565b61120c611207611211926111f5565b6104ae565b610440565b90565b9061121f9101610440565b90565b369037565b9061124c611234836105a4565b926020806112428693610581565b9201910390611222565b565b5f90565b600161125e9103610440565b90565b61126d61127391610440565b91610440565b90811561127e570490565b610d60565b61128b610667565b506112a861129882611d8f565b6112a260016111f8565b90611214565b906112b282611227565b916112bb61124e565b5060208301015b600115611325576112d561130191611252565b916f181899199a1a9b1b9c1cb0b131b232b360811b600a82061a83536112fb600a610c9f565b90611261565b8061131461130e5f6104b1565b91610440565b1461131f57906112c2565b50505b90565b5050611322565b90565b61134361133e6113489261132c565b6104ae565b610440565b90565b61135a61136091939293610440565b92610440565b820180921161136b57565b610cbb565b67ffffffffffffffff811161138e5761138a60209161019d565b0190565b61052f565b906113a56113a083611370565b61056c565b918252565b906113cf6113b783611393565b926020806113c58693611370565b9201910390611222565b565b600360fc1b90565b906113e382610185565b8110156113f557600160209102010190565b6104dc565b600f60fb1b90565b61140b90610440565b5f8114611419576001900390565b610cbb565b6f181899199a1a9b1b9c1cb0b131b232b360811b90565b61143d61141e565b90565b90565b61145761145261145c92611440565b6104ae565b610440565b90565b60f81b90565b61147961147461147e92610670565b6104ae565b610c17565b90565b1c90565b6114a49061149e6114986114a994610c17565b91610440565b90611481565b610440565b90565b9160206114cd9294936114c660408201965f830190610443565b0190610443565b565b90565b906114db610667565b50819261150d6115086114f860026114f3869161132f565b610d2b565b611502600261132f565b9061134b565b6113aa565b916115166113d1565b61152d846115275f935f1a936104b1565b906113d9565b536115366113fa565b61154e846115486001935f1a936111f8565b906113d9565b536115766115666002611561849161132f565b610d2b565b61157060016111f8565b9061134b565b945b8561158c61158660016111f8565b91610440565b11156115f25761159a611435565b816115a5600f611443565b169160108310156115ed576115c16115e1926115e7941a61145f565b6115d087918a905f1a926113d9565b536115db6004611465565b90611485565b95611402565b94611578565b6104dc565b90929391945061160a6116045f6104b1565b91610440565b0361161d57505061161a906114cf565b90565b6116375f92839263e22e27eb60e01b8452600484016114ac565b0390fd5b5f90565b6116489061079b565b90565b6116549061163f565b90565b611660906107b7565b90565b905051906116708261009b565b565b9060208282031261168b57611688915f01611663565b90565b61007c565b6116999061079b565b90565b6116a590611690565b90565b602061170f916116b661163b565b506116e86116e37f000000000000000000000000000000000000000000000000000000000000000061164b565b611657565b6117046316b8e7316116f8610072565b95869485938493610c11565b835260048301610278565b03915afa908115611791575f91611763575b508061173d6117376117325f610bbe565b61008f565b9161008f565b1461174e5761174b9061169c565b90565b5061176061175b5f610bbe565b61169c565b90565b611784915060203d811161178a575b61177c8183610543565b810190611672565b5f611721565b503d611772565b610c63565b5f90565b69ffffffffffffffffffff1690565b6117b28161179a565b036117b957565b5f80fd5b905051906117ca826117a9565b565b90565b6117d8816117cc565b036117df57565b5f80fd5b905051906117f0826117cf565b565b905051906117ff8261071c565b565b919060a08382031261185257611819815f85016117bd565b9261182782602083016117e3565b9261184f61183884604085016117f2565b9361184681606086016117f2565b936080016117bd565b90565b61007c565b61186b611866611870926104ab565b6104ae565b6117cc565b90565b61188761188261188c926104ab565b6104ae565b610c17565b90565b6118a361189e6118a8926117cc565b6104ae565b610440565b90565b906118b461124e565b506118bd611796565b506118e260a06118cc84610b96565b63feaf968c906118da610072565b938492610c11565b825281806118f260048201610c5e565b03915afa9081156119f3575f809290506119c2575b508061191b6119155f611857565b916117cc565b13156119a757602061193861193261194e9361188f565b94610b96565b63313ce56790611946610072565b938492610c11565b8252818061195e60048201610c5e565b03915afa9081156119a2575f91611974575b5090565b611995915060203d811161199b575b61198d8183610543565b810190610c40565b5f611970565b503d611983565b610c63565b5090505f906119bf6119b95f936104b1565b92611873565b90565b6119e3915060a03d81116119ec575b6119db8183610543565b810190611801565b50505090611907565b503d6119d1565b610c63565b90565b611a0f611a0a611a14926119f8565b6104ae565b610440565b90565b611a2160126119fb565b90565b90565b611a3b611a36611a4092611a24565b6104ae565b610440565b90565b611a4d6011611a27565b90565b90611a5b9103610440565b90565b90611a699102610440565b90565b90565b611a83611a7e611a8892611a6c565b6104ae565b610440565b90565b90929192611a9761124e565b50611aa3828290611ff0565b9190919282611aba611ab45f6104b1565b91610440565b14611c675785611ad2611acc85610440565b91610440565b1115611c3557611c2c9286611c32969793611b2393611aef61124e565b5009908582119003940393600183611b105f611b0b87916104b1565b611a50565b1680809504960493805f03040190611a5e565b1791611c26611c0a611be6611bc2611b9e611b7a611b4b6003611b468991611a6f565b611a5e565b611b55600261132f565b18611b746002611b6f611b698b8590611a5e565b9161132f565b611a50565b90611a5e565b611b986002611b93611b8d8a8590611a5e565b9161132f565b611a50565b90611a5e565b611bbc6002611bb7611bb1898590611a5e565b9161132f565b611a50565b90611a5e565b611be06002611bdb611bd5888590611a5e565b9161132f565b611a50565b90611a5e565b611c046002611bff611bf9878590611a5e565b9161132f565b611a50565b90611a5e565b91611c21611c1b6002928590611a5e565b9161132f565b611a50565b90611a5e565b90611a5e565b90565b611c6286611c4b611c455f6104b1565b91610440565b14611c54611a17565b611c5c611a43565b91612015565b612039565b50505091611c759192611261565b90565b90565b611c8f611c8a611c9492611c78565b6104ae565b610440565b90565b90565b611cae611ca9611cb392611c97565b6104ae565b610440565b90565b90565b611ccd611cc8611cd292611cb6565b6104ae565b610440565b90565b90565b611cec611ce7611cf192611cd5565b6104ae565b610440565b90565b90565b611d0b611d06611d1092611cf4565b6104ae565b610440565b90565b90565b611d2a611d25611d2f92611d13565b6104ae565b610440565b90565b90565b611d49611d44611d4e92611d32565b6104ae565b610440565b90565b90565b611d68611d63611d6d92611d51565b6104ae565b610440565b90565b90565b611d87611d82611d8c92611d70565b6104ae565b610440565b90565b611d9761124e565b50611da15f6104b1565b9080611dd0611dca7a184f03e93ff9f4daa797ed6e38ed64bf6a1f010000000000000000611c7b565b91610440565b1015611fa8575b80611df8611df26d04ee2d6d415b85acef8100000000611cb9565b91610440565b1015611f6d575b80611e19611e13662386f26fc10000611cf7565b91610440565b1015611f39575b80611e37611e316305f5e100611d35565b91610440565b1015611f08575b80611e53611e4d612710610d99565b91610440565b1015611ed9575b80611e6e611e686064611d73565b91610440565b1015611eab575b611e88611e82600a610c9f565b91610440565b1015611e92575b90565b611ea690611ea060016111f8565b90611214565b611e8f565b611ec2611ed391611ebc6064611d73565b90611261565b91611ecd600261132f565b90611214565b90611e75565b611ef1611f0291611eeb612710610d99565b90611261565b91611efc6004610673565b90611214565b90611e5a565b611f22611f3391611f1c6305f5e100611d35565b90611261565b91611f2d6008611d54565b90611214565b90611e3e565b611f56611f6791611f50662386f26fc10000611cf7565b90611261565b91611f616010611d16565b90611214565b90611e20565b611f91611fa291611f8b6d04ee2d6d415b85acef8100000000611cb9565b90611261565b91611f9c6020611cd8565b90611214565b90611dff565b611fd9611fea91611fd37a184f03e93ff9f4daa797ed6e38ed64bf6a1f010000000000000000611c7b565b90611261565b91611fe46040611c9a565b90611214565b90611dd7565b90611ff961124e565b5061200261124e565b505f198183099102908180821091030391565b61202f612035929361202561124e565b5080941891612049565b90611a5e565b1890565b634e487b715f526020526024601cfd5b61205161124e565b5015159056fea26469706673582212202e6895a93806710dd8cdace31a8c9831f55b264adce16dbe2ecf27c05aa4dddd64736f6c634300081a0033",
    "linkReferences": {}
  },
  "methodIdentifiers": {
    "explainFailure(bytes)": "a5bea165",
    "feedRegistry()": "90238c39",
    "maxSlippageBps()": "c4aa7395",
    "owner()": "8da5cb5b",
    "validate(address,(string,address,uint256,address,uint256,bytes,bytes)[],(bool,bool))": "57e86eeb"
  },
  "id": 59
}