{
  "abi": [
    {
      "type": "constructor",
      "inputs": [
        {
          "name": "_targetTokens",
          "type": "address[]",
          "internalType": "address[]"
        },
        {
          "name": "_targetsBps",
          "type": "uint256[]",
          "internalType": "uint256[]"
        },
        {
          "name": "_assetUniverse",
          "type": "address",
          "internalType": "address"
        },
        {
          "name": "_feedRegistry",
          "type": "address",
          "internalType": "address"
        },
        {
          "name": "_triggerThresholdBps",
          "type": "uint256",
          "internalType": "uint256"
        },
        {
          "name": "_toleranceThresholdBps",
          "type": "uint256",
          "internalType": "uint256"
        }
      ],
      "stateMutability": "nonpayable"
    },
    {
      "type": "function",
      "name": "assetUniverse",
      "inputs": [],
      "outputs": [
        {
          "name": "",
          "type": "address",
          "internalType": "address"
        }
      ],
      "stateMutability": "view"
    },
    {
      "type": "function",
      "name": "explainFailure",
      "inputs": [
        {
          "name": "data",
          "type": "bytes",
          "internalType": "bytes"
        }
      ],
      "outputs": [
        {
          "name": "",
          "type": "string",
          "internalType": "string"
        }
      ],
      "stateMutability": "pure"
    },
    {
      "type": "function",
      "name": "feedRegistry",
      "inputs": [],
      "outputs": [
        {
          "name": "",
          "type": "address",
          "internalType": "address"
        }
      ],
      "stateMutability": "view"
    },
    {
      "type": "function",
      "name": "targetBps",
      "inputs": [
        {
          "name": "",
          "type": "address",
          "internalType": "address"
        }
      ],
      "outputs": [
        {
          "name": "",
          "type": "uint256",
          "internalType": "uint256"
        }
      ],
      "stateMutability": "view"
    },
    {
      "type": "function",
      "name": "tokenIndex",
      "inputs": [
        {
          "name": "",
          "type": "address",
          "internalType": "address"
        }
      ],
      "outputs": [
        {
          "name": "",
          "type": "uint256",
          "internalType": "uint256"
        }
      ],
      "stateMutability": "view"
    },
    {
      "type": "function",
      "name": "tokens",
      "inputs": [
        {
          "name": "",
          "type": "uint256",
          "internalType": "uint256"
        }
      ],
      "outputs": [
        {
          "name": "",
          "type": "address",
          "internalType": "address"
        }
      ],
      "stateMutability": "view"
    },
    {
      "type": "function",
      "name": "toleranceThresholdBps",
      "inputs": [],
      "outputs": [
        {
          "name": "",
          "type": "uint256",
          "internalType": "uint256"
        }
      ],
      "stateMutability": "view"
    },
    {
      "type": "function",
      "name": "triggerThresholdBps",
      "inputs": [],
      "outputs": [
        {
          "name": "",
          "type": "uint256",
          "internalType": "uint256"
        }
      ],
      "stateMutability": "view"
    },
    {
      "type": "function",
      "name": "validate",
      "inputs": [
        {
          "name": "safe",
          "type": "address",
          "internalType": "address"
        },
        {
          "name": "trades",
          "type": "tuple[]",
          "internalType": "struct IBatchTrade.Trade[]",
          "components": [
            {
              "name": "exchangeName",
              "type": "string",
              "internalType": "string"
            },
            {
              "name": "from",
              "type": "address",
              "internalType": "address"
            },
            {
              "name": "fromAmount",
              "type": "uint256",
              "internalType": "uint256"
            },
            {
              "name": "to",
              "type": "address",
              "internalType": "address"
            },
            {
              "name": "minToReceiveBeforeFees",
              "type": "uint256",
              "internalType": "uint256"
            },
            {
              "name": "data",
              "type": "bytes",
              "internalType": "bytes"
            },
            {
              "name": "signature",
              "type": "bytes",
              "internalType": "bytes"
            }
          ]
        },
        {
          "name": "",
          "type": "tuple",
          "internalType": "struct IBatchTrade.BatchTradeConfig",
          "components": [
            {
              "name": "checkFeelessWallets",
              "type": "bool",
              "internalType": "bool"
            },
            {
              "name": "revertOnError",
              "type": "bool",
              "internalType": "bool"
            }
          ]
        }
      ],
      "outputs": [
        {
          "name": "",
          "type": "bool",
          "internalType": "bool"
        },
        {
          "name": "",
          "type": "bytes",
          "internalType": "bytes"
        }
      ],
      "stateMutability": "view"
    },
    {
      "type": "error",
      "name": "StaticAllocationFeedMissing",
      "inputs": [
        {
          "name": "token",
          "type": "address",
          "internalType": "address"
        }
      ]
    },
    {
      "type": "error",
      "name": "StaticAllocationInsufficientBalance",
      "inputs": [
        {
          "name": "token",
          "type": "address",
          "internalType": "address"
        },
        {
          "name": "required",
          "type": "uint256",
          "internalType": "uint256"
        },
        {
          "name": "available",
          "type": "uint256",
          "internalType": "uint256"
        }
      ]
    },
    {
      "type": "error",
      "name": "StaticAllocationNoRebalanceTrigger",
      "inputs": []
    },
    {
      "type": "error",
      "name": "StaticAllocationOutsideTolerance",
      "inputs": []
    },
    {
      "type": "error",
      "name": "StaticAllocationTokenNotSupported",
      "inputs": [
        {
          "name": "token",
          "type": "address",
          "internalType": "address"
        }
      ]
    },
    {
      "type": "error",
      "name": "StaticAllocationZeroPortfolioValue",
      "inputs": []
    },
    {
      "type": "error",
      "name": "StaticAllocationZeroPredictedValue",
      "inputs": []
    },
    {
      "type": "error",
      "name": "StringsInsufficientHexLength",
      "inputs": [
        {
          "name": "value",
          "type": "uint256",
          "internalType": "uint256"
        },
        {
          "name": "length",
          "type": "uint256",
          "internalType": "uint256"
        }
      ]
    }
  ],
  "bytecode": {
    "object": "0x610100604052346100775761002161001561030a565b94939093929192610b9b565b61002961007c565b613041610f2b823960805181818161072b01526118dd015260a05181818161052a0152611c78015260c051816104d1015260e051818181610583015281816114470152612202015261304190f35b610082565b60405190565b5f80fd5b601f801991011690565b634e487b7160e01b5f52604160045260245ffd5b906100ae90610086565b810190811060018060401b038211176100c657604052565b610090565b906100de6100d761007c565b92836100a4565b565b5f80fd5b5f80fd5b5f80fd5b60018060401b0381116101025760208091020190565b610090565b5f80fd5b60018060a01b031690565b61011f9061010b565b90565b61012b81610116565b0361013257565b5f80fd5b9050519061014382610122565b565b9092919261015a610155826100ec565b6100cb565b938185526020808601920283019281841161019757915b83831061017e5750505050565b6020809161018c8486610136565b815201920191610171565b610107565b9080601f830112156101ba578160206101b793519101610145565b90565b6100e8565b60018060401b0381116101d55760208091020190565b610090565b90565b6101e6816101da565b036101ed57565b5f80fd5b905051906101fe826101dd565b565b90929192610215610210826101bf565b6100cb565b938185526020808601920283019281841161025257915b8383106102395750505050565b6020809161024784866101f1565b81520192019161022c565b610107565b9080601f830112156102755781602061027293519101610200565b90565b6100e8565b909160c082840312610305575f82015160018060401b03811161030057836102a391840161019c565b92602083015160018060401b0381116102fb57816102c2918501610257565b926102d08260408301610136565b926102f86102e18460608501610136565b936102ef81608086016101f1565b9360a0016101f1565b90565b6100e4565b6100e4565b6100e0565b610328613f6c8038038061031d816100cb565b92833981019061027a565b909192939495565b5190565b90565b90565b61034e61034961035392610334565b610337565b6101da565b90565b60209181520190565b5f7f4e6f20746f6b656e730000000000000000000000000000000000000000000000910152565b6103936009602092610356565b61039c8161035f565b0190565b6103b59060208101905f818303910152610386565b90565b156103bf57565b6103c761007c565b62461bcd60e51b8152806103dd600482016103a0565b0390fd5b5190565b5f7f546172676574206c656e67746800000000000000000000000000000000000000910152565b610419600d602092610356565b610422816103e5565b0190565b61043b9060208101905f81830391015261040c565b90565b1561044557565b61044d61007c565b62461bcd60e51b81528061046360048201610426565b0390fd5b90565b61047e61047961048392610467565b610337565b6101da565b90565b5f7f5472696767657220746f6f206869676800000000000000000000000000000000910152565b6104ba6010602092610356565b6104c381610486565b0190565b6104dc9060208101905f8183039101526104ad565b90565b156104e657565b6104ee61007c565b62461bcd60e51b815280610504600482016104c7565b0390fd5b5f7f546f6c6572616e636520746f6f20686967680000000000000000000000000000910152565b61053c6012602092610356565b61054581610508565b0190565b61055e9060208101905f81830391015261052f565b90565b1561056857565b61057061007c565b62461bcd60e51b81528061058660048201610549565b0390fd5b61059e6105996105a392610334565b610337565b61010b565b90565b6105af9061058a565b90565b5f7f5265676973747279207a65726f00000000000000000000000000000000000000910152565b6105e6600d602092610356565b6105ef816105b2565b0190565b6106089060208101905f8183039101526105d9565b90565b1561061257565b61061a61007c565b62461bcd60e51b815280610630600482016105f3565b0390fd5b606090565b61064d6106486106529261010b565b610337565b61010b565b90565b61065e90610639565b90565b61066a90610655565b90565b61067690610639565b90565b6106829061066d565b90565b60e01b90565b906020828203126106b9575f82015160018060401b0381116106b4576106b1920161019c565b90565b6100e4565b6100e0565b5f0190565b6106cb61007c565b3d5f823e3d90fd5b5f7f4e6f20756e697665727365000000000000000000000000000000000000000000910152565b610707600b602092610356565b610710816106d3565b0190565b6107299060208101905f8183039101526106fa565b90565b1561073357565b61073b61007c565b62461bcd60e51b81528061075160048201610714565b0390fd5b600161076191016101da565b90565b634e487b7160e01b5f52603260045260245ffd5b9061078282610330565b811015610793576020809102010190565b610764565b6107a29051610116565b90565b5f7f546f6b656e207a65726f00000000000000000000000000000000000000000000910152565b6107d9600a602092610356565b6107e2816107a5565b0190565b6107fb9060208101905f8183039101526107cc565b90565b1561080557565b61080d61007c565b62461bcd60e51b815280610823600482016107e6565b0390fd5b6108309061066d565b90565b9061083d90610827565b5f5260205260405f2090565b5f1c90565b90565b61085d61086291610849565b61084e565b90565b61086f9054610851565b90565b5f7f4475706c696361746520746f6b656e0000000000000000000000000000000000910152565b6108a6600f602092610356565b6108af81610872565b0190565b6108c89060208101905f818303910152610899565b90565b156108d257565b6108da61007c565b62461bcd60e51b8152806108f0600482016108b3565b0390fd5b90565b5f5260205f2090565b5490565b61090d81610900565b8210156109275761091f6001916108f7565b910201905f90565b610764565b1b90565b9190600861095091029161094a60018060a01b038461092c565b9261092c565b9181191691161790565b90565b919061097361096e61097b93610827565b61095a565b908354610930565b9055565b90815491680100000000000000008310156109af57826109a79160016109ad95018155610904565b9061095d565b565b610090565b90565b6109cb6109c66109d0926109b4565b610337565b6101da565b90565b634e487b7160e01b5f52601160045260245ffd5b6109f66109fc919392936101da565b926101da565b8201809211610a0757565b6109d3565b5f1b90565b90610a1d5f1991610a0c565b9181191691161790565b610a3b610a36610a40926101da565b610337565b6101da565b90565b90565b90610a5b610a56610a6292610a27565b610a43565b8254610a11565b9055565b5f90565b5f7f546172676574206e6f7420696e20756e69766572736500000000000000000000910152565b610a9e6016602092610356565b610aa781610a6a565b0190565b610ac09060208101905f818303910152610a91565b90565b15610aca57565b610ad261007c565b62461bcd60e51b815280610ae860048201610aab565b0390fd5b90610af6826103e1565b811015610b07576020809102010190565b610764565b610b1690516101da565b90565b5f7f5461726765742073756d00000000000000000000000000000000000000000000910152565b610b4d600a602092610356565b610b5681610b19565b0190565b610b6f9060208101905f818303910152610b40565b90565b15610b7957565b610b8161007c565b62461bcd60e51b815280610b9760048201610b5a565b0390fd5b90939295949194610bc6610bae83610330565b610bc0610bba5f61033a565b916101da565b116103b8565b610bf2610bd283610330565b610bec610be6610be1896103e1565b6101da565b916101da565b1461043e565b610c1184610c0a610c0461271061046a565b916101da565b11156104df565b610c3083610c29610c2361271061046a565b916101da565b1115610561565b610c5587610c4e610c48610c435f6105a6565b610116565b91610116565b141561060b565b610c5d610634565b5085610c79610c73610c6e5f6105a6565b610116565b91610116565b14155f14610f2357610cac5f610c96610c9189610661565b610679565b63aa6ca80890610ca461007c565b938492610685565b82528180610cbc600482016106be565b03915afa908115610f1e575f91610efc575b5096610cf4610cdc89610330565b610cee610ce85f61033a565b916101da565b1161072c565b5b610cfe5f61033a565b5b80610d1a610d14610d0f8c610330565b6101da565b916101da565b1015610dcf57610dca90610dc5610d3a610d358c8490610778565b610798565b610d5f81610d58610d52610d4d5f6105a6565b610116565b91610116565b14156107fe565b610d8e610d76610d7160028490610833565b610865565b610d88610d825f61033a565b916101da565b146108cb565b610da1610d9a5f6108f4565b829061097f565b610dc0610db884610db260016109b7565b906109e7565b916002610833565b610a46565b610755565b610cff565b509193959092949650610de0610a66565b94610dea5f61033a565b955b86610e07610e01610dfc89610330565b6101da565b916101da565b1015610ec757610ebb610ec191610ea28b610e9d610e95610e908d610e35610e308f8390610778565b610798565b94610e5b86610e54610e4e610e495f6105a6565b610116565b91610116565b14156107fe565b610e8b610e72610e6d60028990610833565b610865565b610e84610e7e5f61033a565b916101da565b1415610ac3565b610aec565b610b0c565b916001610833565b610a46565b610eb5610eb08c8b90610aec565b610b0c565b906109e7565b96610755565b95610dec565b9195509350610eee9195929650610ee8610ee261271061046a565b916101da565b14610b72565b60805260a05260c05260e052565b610f1891503d805f833e610f1081836100a4565b81019061068b565b5f610cce565b6106c3565b8196610cf556fe60806040526004361015610013575b610782565b61001d5f356100ac565b8063427f91a6146100a75780634f64b2be146100a257806357e86eeb1461009d57806379dbc324146100985780638656cf1b1461009357806390238c391461008e578063a5bea16514610089578063c7e8304f146100845763dad049640361000e5761074d565b6106f4565b6106a5565b6105a5565b61054c565b6104f3565b610486565b610311565b6101d4565b60e01c90565b60405190565b5f80fd5b5f80fd5b5f80fd5b60018060a01b031690565b6100d8906100c4565b90565b6100e4816100cf565b036100eb57565b5f80fd5b905035906100fc826100db565b565b9060208282031261011757610114915f016100ef565b90565b6100bc565b90565b61013361012e610138926100c4565b61011c565b6100c4565b90565b6101449061011f565b90565b6101509061013b565b90565b9061015d90610147565b5f5260205260405f2090565b1c90565b90565b6101809060086101859302610169565b61016d565b90565b906101939154610170565b90565b6101ac906101a76002915f92610153565b610188565b90565b90565b6101bb906101af565b9052565b91906101d2905f602085019401906101b2565b565b34610204576102006101ef6101ea3660046100fe565b610196565b6101f76100b2565b918291826101bf565b0390f35b6100b8565b610212816101af565b0361021957565b5f80fd5b9050359061022a82610209565b565b9060208282031261024557610242915f0161021d565b90565b6100bc565b634e487b7160e01b5f52603260045260245ffd5b5490565b5f5260205f2090565b6102748161025e565b82101561028e57610286600191610262565b910201905f90565b61024a565b60018060a01b031690565b6102ae9060086102b39302610169565b610293565b90565b906102c1915461029e565b90565b5f6102ce8161025e565b8210156102eb576102e8916102e29161026b565b906102b6565b90565b5f80fd5b6102f8906100cf565b9052565b919061030f905f602085019401906102ef565b565b346103415761033d61032c61032736600461022c565b6102c4565b6103346100b2565b918291826102fc565b0390f35b6100b8565b5f80fd5b5f80fd5b5f80fd5b909182601f8301121561038c5781359167ffffffffffffffff831161038757602001926020830284011161038257565b61034e565b61034a565b610346565b5f80fd5b908160409103126103a35790565b610391565b906080828203126103f6576103bf815f84016100ef565b92602083013567ffffffffffffffff81116103f1576103e3836103ee928601610352565b939094604001610395565b90565b6100c0565b6100bc565b151590565b610409906103fb565b9052565b5190565b60209181520190565b90825f9392825e0152565b601f801991011690565b61044e61045760209361045c936104458161040d565b93848093610411565b9586910161041a565b610425565b0190565b916104839261047660408201935f830190610400565b602081840391015261042f565b90565b346104bb576104a26104993660046103a8565b9291909161087e565b906104b76104ae6100b2565b92839283610460565b0390f35b6100b8565b5f9103126104ca57565b6100bc565b7f000000000000000000000000000000000000000000000000000000000000000090565b34610523576105033660046104c0565b61051f61050e6104cf565b6105166100b2565b918291826102fc565b0390f35b6100b8565b7f000000000000000000000000000000000000000000000000000000000000000090565b3461057c5761055c3660046104c0565b610578610567610528565b61056f6100b2565b918291826101bf565b0390f35b6100b8565b7f000000000000000000000000000000000000000000000000000000000000000090565b346105d5576105b53660046104c0565b6105d16105c0610581565b6105c86100b2565b918291826102fc565b0390f35b6100b8565b909182601f830112156106145781359167ffffffffffffffff831161060f57602001926001830284011161060a57565b61034e565b61034a565b610346565b9060208282031261064a575f82013567ffffffffffffffff81116106455761064192016105da565b9091565b6100c0565b6100bc565b5190565b60209181520190565b61067b610684602093610689936106728161064f565b93848093610653565b9586910161041a565b610425565b0190565b6106a29160208201915f81840391015261065c565b90565b346106d6576106d26106c16106bb366004610619565b906110e0565b6106c96100b2565b9182918261068d565b0390f35b6100b8565b6106f1906106ec6001915f92610153565b610188565b90565b346107245761072061070f61070a3660046100fe565b6106db565b6107176100b2565b918291826101bf565b0390f35b6100b8565b7f000000000000000000000000000000000000000000000000000000000000000090565b3461077d5761075d3660046104c0565b610779610768610729565b6107706100b2565b918291826101bf565b0390f35b6100b8565b5f80fd5b5f90565b606090565b90565b6107a66107a16107ab9261078f565b61011c565b6100c4565b90565b6107b790610792565b90565b634e487b7160e01b5f52604160045260245ffd5b906107d890610425565b810190811067ffffffffffffffff8211176107f257604052565b6107ba565b61080b6108066108109261078f565b61011c565b6101af565b90565b5f0190565b9061082b6108246100b2565b92836107ce565b565b67ffffffffffffffff811161084b57610847602091610425565b0190565b6107ba565b9061086261085d8361082d565b610818565b918252565b6108705f610850565b90565b61087b610867565b90565b9091925061088a610786565b5061089361078a565b5061089c611405565b806108b76108b16108ac5f6107ae565b6100cf565b916100cf565b03610a6557506108c69061162e565b906108d08261177c565b806108e36108dd5f6107f7565b916101af565b14610a25576108f56108fb918461183d565b156103fb565b6109e6576109189261090f929190916119bb565b919290156103fb565b6109de57506109268161177c565b908161093a6109345f6107f7565b916101af565b146109a0576109529161094c91611bd8565b156103fb565b61096457600190610961610873565b90565b5f90600461099d63a82525ab60e01b61098e61097e6100b2565b9384926020840190815201610813565b602082018103825203826107ce565b90565b50505f9060046109db63e5ded9a960e01b6109cc6109bc6100b2565b9384926020840190815201610813565b602082018103825203826107ce565b90565b9190505f9190565b5050505f906004610a2263140d86fd60e21b610a13610a036100b2565b9384926020840190815201610813565b602082018103825203826107ce565b90565b505050505f906004610a6263f430d06960e01b610a53610a436100b2565b9384926020840190815201610813565b602082018103825203826107ce565b90565b93925050506004610aa45f93610a9563040337f760e11b91610a856100b2565b94859360208501908152016102fc565b602082018103825203826107ce565b90565b606090565b5090565b90565b610ac7610ac2610acc92610ab0565b61011c565b6101af565b90565b610ad7610867565b90565b63ffffffff60e01b1690565b1b90565b90610af8610aff9183610aac565b9135610ada565b9060048110610b0d575b5090565b610b259063ffffffff60e01b90600403600802610ae6565b165f610b09565b5f80fd5b5f80fd5b90939293848311610b54578411610b4f576001820201920390565b610b30565b610b2c565b91565b610b65906100c4565b90565b610b7181610b5c565b03610b7857565b5f80fd5b90503590610b8982610b68565b565b90602082820312610ba457610ba1915f01610b7c565b90565b6100bc565b610bb29061013b565b90565b610bbe9061011f565b90565b610bd5610bd0610bda926100c4565b61011c565b6101af565b90565b90565b610bf4610bef610bf992610bdd565b61011c565b6101af565b90565b905090565b60207f6f7220746f6b656e200000000000000000000000000000000000000000000000917f537461746963416c6c6f636174696f6e3a2066656564206d697373696e6720665f8201520152565b610c5a60298092610bfc565b610c6381610c01565b0190565b610c8c610c8392602092610c7a8161064f565b94858093610bfc565b9384910161041a565b0190565b90610c9d610ca392610c4e565b90610c67565b90565b90610cce610cb26100b2565b8093610cc2602083019182610c90565b908103825203836107ce565b565b60207f2076616c75650000000000000000000000000000000000000000000000000000917f537461746963416c6c6f636174696f6e3a207a65726f20706f7274666f6c696f5f8201520152565b610d276026610850565b90610d3460208301610cd0565b565b610d3e610d1d565b90565b60207f7269676765720000000000000000000000000000000000000000000000000000917f537461746963416c6c6f636174696f6e3a206e6f20726562616c616e636520745f8201520152565b610d986026610850565b90610da560208301610d41565b565b610daf610d8e565b90565b60207f6f72746564200000000000000000000000000000000000000000000000000000917f537461746963416c6c6f636174696f6e3a20746f6b656e206e6f7420737570705f8201520152565b610e0b60268092610bfc565b610e1481610db2565b0190565b90610e25610e2b92610dff565b90610c67565b90565b90610e56610e3a6100b2565b8093610e4a602083019182610e18565b908103825203836107ce565b565b9091606082840312610e8d57610e8a610e73845f8501610b7c565b93610e81816020860161021d565b9360400161021d565b90565b6100bc565b60207f616c616e636520666f7220000000000000000000000000000000000000000000917f537461746963416c6c6f636174696f6e3a20696e73756666696369656e7420625f8201520152565b610eeb602b8092610bfc565b610ef481610e92565b0190565b7f20726571756972656420000000000000000000000000000000000000000000009052565b7f20617661696c61626c65200000000000000000000000000000000000000000009052565b610f819392600a610f61600b94610f5b610f7195610edf565b90610c67565b610f6a81610ef8565b0190610c67565b610f7a81610f1d565b0190610c67565b90565b90610fb191939293610fa5610f976100b2565b958693602085019384610f42565b908103825203836107ce565b565b60207f2076616c75650000000000000000000000000000000000000000000000000000917f537461746963416c6c6f636174696f6e3a207a65726f207072656469637465645f8201520152565b61100a6026610850565b9061101760208301610fb3565b565b611021611000565b90565b60207f7369646520746f6c6572616e6365000000000000000000000000000000000000917f537461746963416c6c6f636174696f6e3a20616c6c6f636174696f6e206f75745f8201520152565b61107b602e610850565b9061108860208301611024565b565b611092611071565b90565b5f7f537461746963416c6c6f636174696f6e3a20756e6b6e6f776e206572726f7200910152565b6110c6601f610850565b906110d360208301611095565b565b6110dd6110bc565b90565b906110e9610aa7565b506110f5828290610aac565b6111086111026004610ab3565b916101af565b1061137e57611118828290610aea565b918261113361112d63040337f760e11b610ada565b91610ada565b14611318578261115261114c63f430d06960e01b610ada565b91610ada565b1461130a578261117161116b63140d86fd60e21b610ada565b91610ada565b146112fc578261119061118a630a44db2b60e31b610ada565b91610ada565b1461129657826111af6111a9634e1aab6960e01b610ada565b91610ada565b14611215575050806111d06111ca63e5ded9a960e01b610ada565b91610ada565b14611209576111ee6111e863a82525ab60e01b610ada565b91610ada565b146111fe576111fb6110d5565b90565b61120661108a565b90565b50611212611019565b90565b611293925061128d61128761128161125561124d6112476112679761125f979061123f6004610ab3565b908092610b34565b90610b59565b810190610e58565b9691959095610ba9565b949594610bb5565b61127b611275601492610bc1565b91610be0565b90611ea2565b936120a4565b916120a4565b91610f84565b90565b6112f992506112d56112d06112c86112c26112f4956112da95906112ba6004610ab3565b908092610b34565b90610b59565b810190610b8b565b610ba9565b610bb5565b6112ee6112e8601492610bc1565b91610be0565b90611ea2565b610e2e565b90565b505050611307610da7565b90565b505050611315610d36565b90565b61137b925061135761135261134a6113446113769561135c959061133c6004610ab3565b908092610b34565b90610b59565b810190610b8b565b610ba9565b610bb5565b61137061136a601492610bc1565b91610be0565b90611ea2565b610ca6565b90565b5050611388610acf565b90565b5f90565b600161139b91016101af565b90565b6113a79061011f565b90565b6113b39061139e565b90565b6113bf9061013b565b90565b60e01b90565b905051906113d5826100db565b565b906020828203126113f0576113ed915f016113c8565b90565b6100bc565b6113fd6100b2565b3d5f823e3d90fd5b61140d61138b565b506114175f61025e565b6114205f6107f7565b5b8061143461142e846101af565b916101af565b1015611538576114ad602061147061146b7f00000000000000000000000000000000000000000000000000000000000000006113aa565b6113b6565b6316b8e731906114a261148d6114875f889061026b565b906102b6565b926114966100b2565b958694859384936113c2565b8352600483016102fc565b03915afa908115611533575f91611505575b506114da6114d46114cf5f6107ae565b6100cf565b916100cf565b146114ed576114e89061138f565b611421565b61150291506114fc905f61026b565b906102b6565b90565b611526915060203d811161152c575b61151e81836107ce565b8101906113d7565b5f6114bf565b503d611514565b6113f5565b50506115435f6107ae565b90565b606090565b67ffffffffffffffff81116115635760208091020190565b6107ba565b9061157a6115758361154b565b610818565b918252565b369037565b906115a961159183611568565b9260208061159f869361154b565b920191039061157f565b565b6115b49061011f565b90565b6115c0906115ab565b90565b6115cc9061013b565b90565b905051906115dc82610209565b565b906020828203126115f7576115f4915f016115cf565b90565b6100bc565b5190565b9061160a826115fc565b81101561161b576020809102010190565b61024a565b9061162a906101af565b9052565b611636611546565b506116405f61025e565b9061164a82611584565b926116545f6107f7565b5b80611668611662866101af565b916101af565b101561172c576116c290602061169861169361168e6116885f869061026b565b906102b6565b6115b7565b6115c3565b6370a08231906116b787926116ab6100b2565b968794859384936113c2565b8352600483016102fc565b03915afa918215611727576116f4926116ef915f916116f9575b506116ea8891849092611600565b611620565b61138f565b611655565b61171a915060203d8111611720575b61171281836107ce565b8101906115de565b5f6116dc565b503d611708565b6113f5565b50915050565b5f90565b61174090516101af565b90565b634e487b7160e01b5f52601160045260245ffd5b61176661176c919392936101af565b926101af565b820180921161177757565b611743565b90611785611732565b5061178f5f61025e565b91611798611732565b916117a25f6107f7565b925b836117b76117b1876101af565b916101af565b101561180f57611803611809916117fd6117db6117d55f899061026b565b906102b6565b6117e4816121eb565b6117f76117f2898b90611600565b611736565b9161247c565b90611757565b9361138f565b926117a4565b925092505090565b5f1c90565b61182861182d91611817565b61016d565b90565b61183a905461181c565b90565b90611846610786565b506118505f61025e565b9161185a5f6107f7565b5b8061186e611868866101af565b916101af565b1015611924576118d561188b6118855f849061026b565b906102b6565b6118cf6118ca6118c26118bb6118a0856121eb565b85906118b56118b08b8b90611600565b611736565b9161247c565b8890612721565b926001610153565b611830565b9061278e565b6119076119017f00000000000000000000000000000000000000000000000000000000000000006101af565b916101af565b101561191b576119169061138f565b61185b565b50505050600190565b505050505f90565b5090565b5f80fd5b903590600160e0038136030382121561194b570190565b611930565b9082101561196a5760206119679202810190611934565b90565b61024a565b35611979816100db565b90565b3561198681610209565b90565b6040906119b26119b994969593966119a860608401985f8501906102ef565b60208301906101b2565b01906101b2565b565b90916119c5611546565b506119ce610786565b506119d761078a565b506119e383829061192c565b926119ed5f6107f7565b5b80611a016119fb876101af565b916101af565b1015611bc257611a1382848391611950565b611a30611a2a611a256020840161196f565b6127cd565b156103fb565b611b7057611a51611a4b611a466060840161196f565b6127cd565b156103fb565b611b1e57611a82611a7a86611a686020850161196f565b611a746040860161197c565b91612800565b9190156103fb565b611ab9575090611aaf611ab4928690611aa96080611aa26060840161196f565b920161197c565b9161291a565b61138f565b6119ee565b95509593905060049250611b18915093611b095f96634e1aab6960e01b92611aef6040611ae86020850161196f565b930161197c565b9091611af96100b2565b9687956020870190815201611989565b602082018103825203826107ce565b91929190565b959450505050906004611b6a5f94611b5b611b436060630a44db2b60e31b930161196f565b611b4b6100b2565b94859360208501908152016102fc565b602082018103825203826107ce565b91929190565b959450505050906004611bbc5f94611bad611b956020630a44db2b60e31b930161196f565b611b9d6100b2565b94859360208501908152016102fc565b602082018103825203826107ce565b91929190565b5050509050600191611bd2610873565b91929190565b90611be1610786565b50611beb5f61025e565b91611bf55f6107f7565b5b80611c09611c03866101af565b916101af565b1015611cbd57611c70611c26611c205f849061026b565b906102b6565b611c6a611c65611c5d611c56611c3b856121eb565b8590611c50611c4b8b8b90611600565b611736565b9161247c565b8890612721565b926001610153565b611830565b9061278e565b611ca2611c9c7f00000000000000000000000000000000000000000000000000000000000000006101af565b916101af565b11611cb557611cb09061138f565b611bf6565b505050505f90565b50505050600190565b90565b611cdd611cd8611ce292611cc6565b61011c565b6101af565b90565b611cf4611cfa919392936101af565b926101af565b91611d068382026101af565b928184041490151715611d1557565b611743565b67ffffffffffffffff8111611d3857611d34602091610425565b0190565b6107ba565b90611d4f611d4a83611d1a565b610818565b918252565b369037565b90611d7e611d6683611d3d565b92602080611d748693611d1a565b9201910390611d54565b565b600360fc1b90565b90611d928261040d565b811015611da457600160209102010190565b61024a565b600f60fb1b90565b90565b611dc8611dc3611dcd92611db1565b61011c565b6101af565b90565b611dd9906101af565b5f8114611de7576001900390565b611743565b6f181899199a1a9b1b9c1cb0b131b232b360811b90565b611e0b611dec565b90565b90565b611e25611e20611e2a92611e0e565b61011c565b6101af565b90565b60f81b90565b60ff1690565b611e4d611e48611e5292610ab0565b61011c565b611e33565b90565b611e7490611e6e611e68611e7994611e33565b916101af565b90610169565b6101af565b90565b916020611e9d929493611e9660408201965f8301906101b2565b01906101b2565b565b90565b90611eab610aa7565b508192611edd611ed8611ec86002611ec38691611cc9565b611ce5565b611ed26002611cc9565b90611757565b611d59565b91611ee6611d80565b611efd84611ef75f935f1a936107f7565b90611d88565b53611f06611da9565b611f1e84611f186001935f1a93611db4565b90611d88565b53611f46611f366002611f318491611cc9565b611ce5565b611f406001611db4565b90611757565b945b85611f5c611f566001611db4565b916101af565b1115611fc257611f6a611e03565b81611f75600f611e11565b16916010831015611fbd57611f91611fb192611fb7941a611e2d565b611fa087918a905f1a92611d88565b53611fab6004611e39565b90611e55565b95611dd0565b94611f48565b61024a565b909293919450611fda611fd45f6107f7565b916101af565b03611fed575050611fea90611e9f565b90565b6120075f92839263e22e27eb60e01b845260048401611e7c565b0390fd5b9061201691016101af565b90565b9061203e61202683610850565b92602080612034869361082d565b9201910390611d54565b565b600161204c91036101af565b90565b90565b61206661206161206b9261204f565b61011c565b6101af565b90565b634e487b7160e01b5f52601260045260245ffd5b61208e612094916101af565b916101af565b90811561209f570490565b61206e565b6120ac610aa7565b506120c96120b982612ac6565b6120c36001611db4565b9061200b565b906120d382612019565b916120dc611732565b5060208301015b600115612146576120f661212291612040565b916f181899199a1a9b1b9c1cb0b131b232b360811b600a82061a835361211c600a612052565b90612082565b8061213561212f5f6107f7565b916101af565b1461214057906120e3565b50505b90565b5050612143565b5f90565b5f7f46656564206d697373696e670000000000000000000000000000000000000000910152565b612185600c602092610653565b61218e81612151565b0190565b6121a79060208101905f818303910152612178565b90565b156121b157565b6121b96100b2565b62461bcd60e51b8152806121cf60048201612192565b0390fd5b6121dc9061011f565b90565b6121e8906121d3565b90565b6020612252916121f961214d565b5061222b6122267f00000000000000000000000000000000000000000000000000000000000000006113aa565b6113b6565b6122476316b8e73161223b6100b2565b958694859384936113c2565b8352600483016102fc565b03915afa80156122c357612292915f91612295575b5061228d8161228661228061227b5f6107ae565b6100cf565b916100cf565b14156121aa565b6121df565b90565b6122b6915060203d81116122bc575b6122ae81836107ce565b8101906113d7565b5f612267565b503d6122a4565b6113f5565b6122d19061013b565b90565b69ffffffffffffffffffff1690565b6122ec816122d4565b036122f357565b5f80fd5b90505190612304826122e3565b565b90565b61231281612306565b0361231957565b5f80fd5b9050519061232a82612309565b565b919060a08382031261237d57612344815f85016122f7565b92612352826020830161231d565b9261237a61236384604085016115cf565b9361237181606086016115cf565b936080016122f7565b90565b6100bc565b61239661239161239b9261078f565b61011c565b612306565b90565b6123a781611e33565b036123ae57565b5f80fd5b905051906123bf8261239e565b565b906020828203126123da576123d7915f016123b2565b90565b6100bc565b6123f36123ee6123f892612306565b61011c565b6101af565b90565b61240490611e33565b604d811161241257600a0a90565b611743565b90565b61242e61242961243392612417565b61011c565b611e33565b90565b61244261244891611e33565b91611e33565b90039060ff821161245557565b611743565b61246661246c916101af565b916101af565b908115612477570490565b61206e565b91612485611732565b50806124996124935f6107f7565b916101af565b146126f3576124c260a06124ac846122c8565b63feaf968c906124ba6100b2565b9384926113c2565b825281806124d260048201610813565b03915afa9081156126ee575f809290506126bd575b5090816124fc6124f65f612382565b91612306565b13156126ad576020612510612526946122c8565b63313ce5679061251e6100b2565b9586926113c2565b8252818061253660048201610813565b03915afa9283156126a85761256161255c612577956020935f9161267b575b50966115b7565b6115c3565b63313ce5679061256f6100b2565b9586926113c2565b8252818061258760048201610813565b03915afa8015612676576125ab6125b1916125b7955f91612648575b5092936123df565b916123fb565b91612db7565b90806125cc6125c6601261241a565b91611e33565b115f146125fd576125f36125ee6125f993926125e8601261241a565b90612436565b6123fb565b9061245a565b5b90565b8061261161260b601261241a565b91611e33565b1061261d575b506125fa565b61263c6126376126429392612632601261241a565b612436565b6123fb565b90611ce5565b5f612617565b612669915060203d811161266f575b61266181836107ce565b8101906123c1565b5f6125a3565b503d612657565b6113f5565b61269b9150843d81116126a1575b61269381836107ce565b8101906123c1565b5f612555565b503d612689565b6113f5565b505050506126ba5f6107f7565b90565b6126de915060a03d81116126e7575b6126d681836107ce565b81019061232c565b505050906124e7565b503d6126cc565b6113f5565b5050506126ff5f6107f7565b90565b90565b61271961271461271e92612702565b61011c565b6101af565b90565b9061272a611732565b508061273e6127385f6107f7565b916101af565b1461275b5761275891612752612710612705565b90612db7565b90565b50506127665f6107f7565b90565b61277861277e919392936101af565b926101af565b820391821161278957565b611743565b612796611732565b50806127aa6127a4846101af565b916101af565b115f146127bf57906127bb91612769565b5b90565b6127c891612769565b6127bc565b6127e46127e9916127dc610786565b506002610153565b611830565b6127fb6127f55f6107f7565b916101af565b141590565b92919061280b610786565b50612814611732565b50816128286128225f6107f7565b916101af565b146129075761283b612840916002610153565b611830565b8061285361284d5f6107f7565b916101af565b146128f55761286c906128666001611db4565b90612769565b9061288061287b858490611600565b611736565b61289261288c836101af565b916101af565b106128de576128db916128ce6128d6926128c987916128c385916128be6128b98487611600565b611736565b612769565b92611600565b611620565b600194611600565b611736565b90565b506128ed6128f2915f94611600565b611736565b90565b505090505f906129045f6107f7565b90565b505090506001906129175f6107f7565b90565b91908161292f6129295f6107f7565b916101af565b146129aa57612942612947916002610153565b611830565b908161295b6129555f6107f7565b916101af565b146129a5576129a39261299861298061299e93929461297a6001611db4565b90612769565b9161299361298e8487611600565b611736565b611757565b92611600565b611620565b565b505050565b505050565b90565b6129c66129c16129cb926129af565b61011c565b6101af565b90565b90565b6129e56129e06129ea926129ce565b61011c565b6101af565b90565b90565b612a046129ff612a09926129ed565b61011c565b6101af565b90565b90565b612a23612a1e612a2892612a0c565b61011c565b6101af565b90565b90565b612a42612a3d612a4792612a2b565b61011c565b6101af565b90565b90565b612a61612a5c612a6692612a4a565b61011c565b6101af565b90565b90565b612a80612a7b612a8592612a69565b61011c565b6101af565b90565b90565b612a9f612a9a612aa492612a88565b61011c565b6101af565b90565b90565b612abe612ab9612ac392612aa7565b61011c565b6101af565b90565b612ace611732565b50612ad85f6107f7565b9080612b07612b017a184f03e93ff9f4daa797ed6e38ed64bf6a1f0100000000000000006129b2565b916101af565b1015612cdf575b80612b2f612b296d04ee2d6d415b85acef81000000006129f0565b916101af565b1015612ca4575b80612b50612b4a662386f26fc10000612a2e565b916101af565b1015612c70575b80612b6e612b686305f5e100612a6c565b916101af565b1015612c3f575b80612b8a612b84612710612705565b916101af565b1015612c10575b80612ba5612b9f6064612aaa565b916101af565b1015612be2575b612bbf612bb9600a612052565b916101af565b1015612bc9575b90565b612bdd90612bd76001611db4565b9061200b565b612bc6565b612bf9612c0a91612bf36064612aaa565b90612082565b91612c046002611cc9565b9061200b565b90612bac565b612c28612c3991612c22612710612705565b90612082565b91612c336004610ab3565b9061200b565b90612b91565b612c59612c6a91612c536305f5e100612a6c565b90612082565b91612c646008612a8b565b9061200b565b90612b75565b612c8d612c9e91612c87662386f26fc10000612a2e565b90612082565b91612c986010612a4d565b9061200b565b90612b57565b612cc8612cd991612cc26d04ee2d6d415b85acef81000000006129f0565b90612082565b91612cd36020612a0f565b9061200b565b90612b36565b612d10612d2191612d0a7a184f03e93ff9f4daa797ed6e38ed64bf6a1f0100000000000000006129b2565b90612082565b91612d1b60406129d1565b9061200b565b90612b0e565b612d3b612d36612d4092612417565b61011c565b6101af565b90565b612d4d6012612d27565b90565b90565b612d67612d62612d6c92612d50565b61011c565b6101af565b90565b612d796011612d53565b90565b90612d8791036101af565b90565b90612d9591026101af565b90565b90565b612daf612daa612db492612d98565b61011c565b6101af565b90565b90929192612dc3611732565b50612dcf828290612fa4565b9190919282612de6612de05f6107f7565b916101af565b14612f935785612dfe612df8856101af565b916101af565b1115612f6157612f589286612f5e969793612e4f93612e1b611732565b5009908582119003940393600183612e3c5f612e3787916107f7565b612d7c565b1680809504960493805f03040190612d8a565b1791612f52612f36612f12612eee612eca612ea6612e776003612e728991612d9b565b612d8a565b612e816002611cc9565b18612ea06002612e9b612e958b8590612d8a565b91611cc9565b612d7c565b90612d8a565b612ec46002612ebf612eb98a8590612d8a565b91611cc9565b612d7c565b90612d8a565b612ee86002612ee3612edd898590612d8a565b91611cc9565b612d7c565b90612d8a565b612f0c6002612f07612f01888590612d8a565b91611cc9565b612d7c565b90612d8a565b612f306002612f2b612f25878590612d8a565b91611cc9565b612d7c565b90612d8a565b91612f4d612f476002928590612d8a565b91611cc9565b612d7c565b90612d8a565b90612d8a565b90565b612f8e86612f77612f715f6107f7565b916101af565b14612f80612d43565b612f88612d6f565b91612fc9565b612fed565b50505091612fa19192612082565b90565b90612fad611732565b50612fb6611732565b505f198183099102908180821091030391565b612fe3612fe99293612fd9611732565b5080941891612ffd565b90612d8a565b1890565b634e487b715f526020526024601cfd5b613005611732565b5015159056fea264697066735822122045d3d21909dfc10ebeeaa216174f86086db8ea002dfd0c50acf220a671cd364464736f6c634300081a0033",
    "linkReferences": {}
  },
  "methodIdentifiers": {
    "assetUniverse()": "79dbc324",
    "explainFailure(bytes)": "a5bea165",
    "feedRegistry()": "90238c39",
    "targetBps(address)": "c7e8304f",
    "tokenIndex(address)": "427f91a6",
    "tokens(uint256)": "4f64b2be",
    "toleranceThresholdBps()": "8656cf1b",
    "triggerThresholdBps()": "dad04964",
    "validate(address,(string,address,uint256,address,uint256,bytes,bytes)[],(bool,bool))": "57e86eeb"
  },
  "id": 60
}