{
  "abi": [
    {
      "type": "constructor",
      "inputs": [
        {
          "name": "_scheduler",
          "type": "address",
          "internalType": "address"
        },
        {
          "name": "_registry",
          "type": "address",
          "internalType": "address"
        },
        {
          "name": "_safe",
          "type": "address",
          "internalType": "contract ISafe"
        },
        {
          "name": "_batchTrade",
          "type": "address",
          "internalType": "contract IBatchTrade"
        },
        {
          "name": "_cooldown",
          "type": "uint256",
          "internalType": "uint256"
        }
      ],
      "stateMutability": "nonpayable"
    },
    {
      "type": "function",
      "name": "addPolicy",
      "inputs": [
        {
          "name": "policy",
          "type": "address",
          "internalType": "address"
        }
      ],
      "outputs": [],
      "stateMutability": "nonpayable"
    },
    {
      "type": "function",
      "name": "batchTrade",
      "inputs": [],
      "outputs": [
        {
          "name": "",
          "type": "address",
          "internalType": "contract IBatchTrade"
        }
      ],
      "stateMutability": "view"
    },
    {
      "type": "function",
      "name": "checkPolicies",
      "inputs": [
        {
          "name": "trades",
          "type": "tuple[]",
          "internalType": "struct IBatchTrade.Trade[]",
          "components": [
            {
              "name": "exchangeName",
              "type": "string",
              "internalType": "string"
            },
            {
              "name": "from",
              "type": "address",
              "internalType": "address"
            },
            {
              "name": "fromAmount",
              "type": "uint256",
              "internalType": "uint256"
            },
            {
              "name": "to",
              "type": "address",
              "internalType": "address"
            },
            {
              "name": "minToReceiveBeforeFees",
              "type": "uint256",
              "internalType": "uint256"
            },
            {
              "name": "data",
              "type": "bytes",
              "internalType": "bytes"
            },
            {
              "name": "signature",
              "type": "bytes",
              "internalType": "bytes"
            }
          ]
        },
        {
          "name": "config",
          "type": "tuple",
          "internalType": "struct IBatchTrade.BatchTradeConfig",
          "components": [
            {
              "name": "checkFeelessWallets",
              "type": "bool",
              "internalType": "bool"
            },
            {
              "name": "revertOnError",
              "type": "bool",
              "internalType": "bool"
            }
          ]
        }
      ],
      "outputs": [
        {
          "name": "ok",
          "type": "bool",
          "internalType": "bool"
        },
        {
          "name": "failedPolicy",
          "type": "address",
          "internalType": "address"
        },
        {
          "name": "reason",
          "type": "bytes",
          "internalType": "bytes"
        }
      ],
      "stateMutability": "view"
    },
    {
      "type": "function",
      "name": "checkPoliciesVerbose",
      "inputs": [
        {
          "name": "trades",
          "type": "tuple[]",
          "internalType": "struct IBatchTrade.Trade[]",
          "components": [
            {
              "name": "exchangeName",
              "type": "string",
              "internalType": "string"
            },
            {
              "name": "from",
              "type": "address",
              "internalType": "address"
            },
            {
              "name": "fromAmount",
              "type": "uint256",
              "internalType": "uint256"
            },
            {
              "name": "to",
              "type": "address",
              "internalType": "address"
            },
            {
              "name": "minToReceiveBeforeFees",
              "type": "uint256",
              "internalType": "uint256"
            },
            {
              "name": "data",
              "type": "bytes",
              "internalType": "bytes"
            },
            {
              "name": "signature",
              "type": "bytes",
              "internalType": "bytes"
            }
          ]
        },
        {
          "name": "config",
          "type": "tuple",
          "internalType": "struct IBatchTrade.BatchTradeConfig",
          "components": [
            {
              "name": "checkFeelessWallets",
              "type": "bool",
              "internalType": "bool"
            },
            {
              "name": "revertOnError",
              "type": "bool",
              "internalType": "bool"
            }
          ]
        }
      ],
      "outputs": [
        {
          "name": "ok",
          "type": "bool",
          "internalType": "bool"
        },
        {
          "name": "failedPolicy",
          "type": "address",
          "internalType": "address"
        },
        {
          "name": "reason",
          "type": "string",
          "internalType": "string"
        }
      ],
      "stateMutability": "view"
    },
    {
      "type": "function",
      "name": "checkUpkeep",
      "inputs": [
        {
          "name": "",
          "type": "bytes",
          "internalType": "bytes"
        }
      ],
      "outputs": [
        {
          "name": "upkeepNeeded",
          "type": "bool",
          "internalType": "bool"
        },
        {
          "name": "performData",
          "type": "bytes",
          "internalType": "bytes"
        }
      ],
      "stateMutability": "view"
    },
    {
      "type": "function",
      "name": "clearExpired",
      "inputs": [],
      "outputs": [],
      "stateMutability": "nonpayable"
    },
    {
      "type": "function",
      "name": "cooldown",
      "inputs": [],
      "outputs": [
        {
          "name": "",
          "type": "uint256",
          "internalType": "uint256"
        }
      ],
      "stateMutability": "view"
    },
    {
      "type": "function",
      "name": "executeTradeNow",
      "inputs": [
        {
          "name": "_approvals",
          "type": "tuple[]",
          "internalType": "struct StrategyExecutor.TokenApproval[]",
          "components": [
            {
              "name": "token",
              "type": "address",
              "internalType": "address"
            },
            {
              "name": "amount",
              "type": "uint256",
              "internalType": "uint256"
            }
          ]
        },
        {
          "name": "_tradeData",
          "type": "bytes",
          "internalType": "bytes"
        }
      ],
      "outputs": [],
      "stateMutability": "nonpayable"
    },
    {
      "type": "function",
      "name": "lastExecution",
      "inputs": [],
      "outputs": [
        {
          "name": "",
          "type": "uint256",
          "internalType": "uint256"
        }
      ],
      "stateMutability": "view"
    },
    {
      "type": "function",
      "name": "pendingApprovals",
      "inputs": [
        {
          "name": "",
          "type": "uint256",
          "internalType": "uint256"
        }
      ],
      "outputs": [
        {
          "name": "token",
          "type": "address",
          "internalType": "address"
        },
        {
          "name": "amount",
          "type": "uint256",
          "internalType": "uint256"
        }
      ],
      "stateMutability": "view"
    },
    {
      "type": "function",
      "name": "pendingTradeData",
      "inputs": [],
      "outputs": [
        {
          "name": "",
          "type": "bytes",
          "internalType": "bytes"
        }
      ],
      "stateMutability": "view"
    },
    {
      "type": "function",
      "name": "performUpkeep",
      "inputs": [
        {
          "name": "",
          "type": "bytes",
          "internalType": "bytes"
        }
      ],
      "outputs": [],
      "stateMutability": "nonpayable"
    },
    {
      "type": "function",
      "name": "policies",
      "inputs": [
        {
          "name": "",
          "type": "uint256",
          "internalType": "uint256"
        }
      ],
      "outputs": [
        {
          "name": "",
          "type": "address",
          "internalType": "address"
        }
      ],
      "stateMutability": "view"
    },
    {
      "type": "function",
      "name": "registry",
      "inputs": [],
      "outputs": [
        {
          "name": "",
          "type": "address",
          "internalType": "address"
        }
      ],
      "stateMutability": "view"
    },
    {
      "type": "function",
      "name": "removePolicy",
      "inputs": [
        {
          "name": "policy",
          "type": "address",
          "internalType": "address"
        }
      ],
      "outputs": [],
      "stateMutability": "nonpayable"
    },
    {
      "type": "function",
      "name": "safe",
      "inputs": [],
      "outputs": [
        {
          "name": "",
          "type": "address",
          "internalType": "contract ISafe"
        }
      ],
      "stateMutability": "view"
    },
    {
      "type": "function",
      "name": "scheduleTrade",
      "inputs": [
        {
          "name": "_approvals",
          "type": "tuple[]",
          "internalType": "struct StrategyExecutor.TokenApproval[]",
          "components": [
            {
              "name": "token",
              "type": "address",
              "internalType": "address"
            },
            {
              "name": "amount",
              "type": "uint256",
              "internalType": "uint256"
            }
          ]
        },
        {
          "name": "_tradeData",
          "type": "bytes",
          "internalType": "bytes"
        },
        {
          "name": "_validForSeconds",
          "type": "uint256",
          "internalType": "uint256"
        }
      ],
      "outputs": [],
      "stateMutability": "nonpayable"
    },
    {
      "type": "function",
      "name": "scheduler",
      "inputs": [],
      "outputs": [
        {
          "name": "",
          "type": "address",
          "internalType": "address"
        }
      ],
      "stateMutability": "view"
    },
    {
      "type": "function",
      "name": "setCooldown",
      "inputs": [
        {
          "name": "_cooldown",
          "type": "uint256",
          "internalType": "uint256"
        }
      ],
      "outputs": [],
      "stateMutability": "nonpayable"
    },
    {
      "type": "function",
      "name": "tradeDeadline",
      "inputs": [],
      "outputs": [
        {
          "name": "",
          "type": "uint256",
          "internalType": "uint256"
        }
      ],
      "stateMutability": "view"
    },
    {
      "type": "event",
      "name": "PolicyAdded",
      "inputs": [
        {
          "name": "policy",
          "type": "address",
          "indexed": false,
          "internalType": "address"
        }
      ],
      "anonymous": false
    },
    {
      "type": "event",
      "name": "PolicyRemoved",
      "inputs": [
        {
          "name": "policy",
          "type": "address",
          "indexed": false,
          "internalType": "address"
        }
      ],
      "anonymous": false
    },
    {
      "type": "event",
      "name": "TradeExecuted",
      "inputs": [
        {
          "name": "tradeData",
          "type": "bytes",
          "indexed": false,
          "internalType": "bytes"
        }
      ],
      "anonymous": false
    },
    {
      "type": "event",
      "name": "TradeExpired",
      "inputs": [
        {
          "name": "tradeData",
          "type": "bytes",
          "indexed": false,
          "internalType": "bytes"
        }
      ],
      "anonymous": false
    },
    {
      "type": "event",
      "name": "TradeFailed",
      "inputs": [
        {
          "name": "tradeData",
          "type": "bytes",
          "indexed": false,
          "internalType": "bytes"
        },
        {
          "name": "result",
          "type": "bytes",
          "indexed": false,
          "internalType": "bytes"
        }
      ],
      "anonymous": false
    },
    {
      "type": "event",
      "name": "TradeScheduled",
      "inputs": [
        {
          "name": "tradeData",
          "type": "bytes",
          "indexed": false,
          "internalType": "bytes"
        },
        {
          "name": "deadline",
          "type": "uint256",
          "indexed": false,
          "internalType": "uint256"
        }
      ],
      "anonymous": false
    },
    {
      "type": "error",
      "name": "PolicyCheckFailed",
      "inputs": [
        {
          "name": "policy",
          "type": "address",
          "internalType": "address"
        },
        {
          "name": "data",
          "type": "bytes",
          "internalType": "bytes"
        }
      ]
    }
  ],
  "bytecode": {
    "object": "0x610100604052346100ba5761001e61001561023b565b93929092610539565b6100266100bf565b613af06105fb8239608051818181610afd01528181610f0e01528181612a020152612f38015260a051818181610767015281816116d801528181612ce20152612f11015260c0518181816102dd015281816121350152818161226301528181612b5e015281816133e2015281816138f101526139f3015260e0518181816109bb015281816138960152613a260152613af090f35b6100c5565b60405190565b5f80fd5b601f801991011690565b634e487b7160e01b5f52604160045260245ffd5b906100f1906100c9565b810190811060018060401b0382111761010957604052565b6100d3565b9061012161011a6100bf565b92836100e7565b565b5f80fd5b60018060a01b031690565b61013b90610127565b90565b61014781610132565b0361014e57565b5f80fd5b9050519061015f8261013e565b565b61016a90610132565b90565b61017681610161565b0361017d57565b5f80fd5b9050519061018e8261016d565b565b61019990610132565b90565b6101a581610190565b036101ac57565b5f80fd5b905051906101bd8261019c565b565b90565b6101cb816101bf565b036101d257565b5f80fd5b905051906101e3826101c2565b565b919060a083820312610236576101fd815f8501610152565b9261020b8260208301610152565b9261023361021c8460408501610181565b9361022a81606086016101b0565b936080016101d6565b90565b610123565b6102596140eb8038038061024e8161010e565b9283398101906101e5565b9091929394565b90565b90565b61027a61027561027f92610260565b610263565b610127565b90565b61028b90610266565b90565b60209181520190565b5f7f5363686564756c6572207a65726f000000000000000000000000000000000000910152565b6102cb600e60209261028e565b6102d481610297565b0190565b6102ed9060208101905f8183039101526102be565b90565b156102f757565b6102ff6100bf565b62461bcd60e51b815280610315600482016102d8565b0390fd5b5f7f5265676973747279207a65726f00000000000000000000000000000000000000910152565b61034d600d60209261028e565b61035681610319565b0190565b61036f9060208101905f818303910152610340565b90565b1561037957565b6103816100bf565b62461bcd60e51b8152806103976004820161035a565b0390fd5b6103af6103aa6103b492610127565b610263565b610127565b90565b6103c09061039b565b90565b6103cc906103b7565b90565b5f7f53616665207a65726f0000000000000000000000000000000000000000000000910152565b610403600960209261028e565b61040c816103cf565b0190565b6104259060208101905f8183039101526103f6565b90565b1561042f57565b6104376100bf565b62461bcd60e51b81528061044d60048201610410565b0390fd5b61045a906103b7565b90565b5f7f42617463685472616465207a65726f0000000000000000000000000000000000910152565b610491600f60209261028e565b61049a8161045d565b0190565b6104b39060208101905f818303910152610484565b90565b156104bd57565b6104c56100bf565b62461bcd60e51b8152806104db6004820161049e565b0390fd5b5f1b90565b906104f05f19916104df565b9181191691161790565b61050e610509610513926101bf565b610263565b6101bf565b90565b90565b9061052e610529610535926104fa565b610516565b82546104e4565b9055565b906105f8949392916105668161055f6105596105545f610282565b610132565b91610132565b14156102f0565b61058b8261058461057e6105795f610282565b610132565b91610132565b1415610372565b6105b8610597846103c3565b6105b16105ab6105a65f610282565b610132565b91610132565b1415610428565b6105e56105c485610451565b6105de6105d86105d35f610282565b610132565b91610132565b14156104b6565b60805260a05260c05260e0526002610519565b56fe60806040526004361015610013575b610e74565b61001d5f3561015c565b806315c8d4d914610157578063186f0354146101525780634585e33b1461014d5780634fc3f41a14610148578063686b656e146101435780636e04ff0d1461013e578063787a08a61461013957806378d38d82146101345780637b1039991461012f57806393106d771461012a5780639958cdec146101255780639b43b80614610120578063aab58ca31461011b578063ac4747db14610116578063b7fc3e5114610111578063b84ef0811461010c578063d1ad17bf14610107578063d3e8948314610102578063dc5ce33a146100fd5763f6d688bc0361000e57610e3d565b610da9565b610bda565b610b1f565b610ac8565b610a93565b610a4f565b610a0b565b610986565b61094d565b6108e0565b61079e565b610732565b6106bc565b610637565b610576565b610420565b6103ce565b610363565b610295565b60e01c90565b60405190565b5f80fd5b5f80fd5b5f80fd5b5f80fd5b5f80fd5b5f80fd5b909182601f830112156101ba5781359167ffffffffffffffff83116101b55760200192604083028401116101b057565b61017c565b610178565b610174565b909182601f830112156101f95781359167ffffffffffffffff83116101f45760200192600183028401116101ef57565b61017c565b610178565b610174565b90565b61020a816101fe565b0361021157565b5f80fd5b9050359061022282610201565b565b60608183031261028b575f81013567ffffffffffffffff8111610286578261024d918301610180565b929093602083013567ffffffffffffffff8111610281576102738361027e9286016101bf565b939094604001610215565b90565b610170565b610170565b61016c565b5f0190565b346102c7576102b16102a8366004610224565b93929092611636565b6102b9610162565b806102c381610290565b0390f35b610168565b5f9103126102d657565b61016c565b7f000000000000000000000000000000000000000000000000000000000000000090565b60018060a01b031690565b90565b61032161031c610326926102ff565b61030a565b6102ff565b90565b6103329061030d565b90565b61033e90610329565b90565b61034a90610335565b9052565b9190610361905f60208501940190610341565b565b34610393576103733660046102cc565b61038f61037e6102db565b610386610162565b9182918261034e565b0390f35b610168565b906020828203126103c9575f82013567ffffffffffffffff81116103c4576103c092016101bf565b9091565b610170565b61016c565b346103fd576103e76103e1366004610398565b90612094565b6103ef610162565b806103f981610290565b0390f35b610168565b9060208282031261041b57610418915f01610215565b90565b61016c565b3461044e57610438610433366004610402565b61217e565b610440610162565b8061044a81610290565b0390f35b610168565b634e487b7160e01b5f52603260045260245ffd5b5490565b5f5260205f2090565b61047d81610467565b8210156104975761048f60029161046b565b910201905f90565b610453565b5f1c90565b60018060a01b031690565b6104b86104bd9161049c565b6104a1565b90565b6104ca90546104ac565b90565b90565b6104dc6104e19161049c565b6104cd565b90565b6104ee90546104d0565b90565b6003906104fd82610467565b8110156105295761050d91610474565b5090610526600161051f5f85016104c0565b93016104e4565b90565b5f80fd5b610536906102ff565b90565b6105429061052d565b9052565b61054f906101fe565b9052565b91602061057492949361056d60408201965f830190610539565b0190610546565b565b346105a75761058e610589366004610402565b6104f1565b906105a361059a610162565b92839283610553565b0390f35b610168565b151590565b6105ba906105ac565b9052565b5190565b60209181520190565b90825f9392825e0152565b601f801991011690565b6105ff61060860209361060d936105f6816105be565b938480936105c2565b958691016105cb565b6105d6565b0190565b916106349261062760408201935f8301906105b1565b60208184039101526105e0565b90565b346106695761065061064a366004610398565b90612192565b9061066561065c610162565b92839283610611565b0390f35b610168565b1c90565b610682906008610687930261066e565b6104cd565b90565b906106959154610672565b90565b6106a460025f9061068a565b90565b91906106ba905f60208501940190610546565b565b346106ec576106cc3660046102cc565b6106e86106d7610698565b6106df610162565b918291826106a7565b0390f35b610168565b6106fa8161052d565b0361070157565b5f80fd5b90503590610712826106f1565b565b9060208282031261072d5761072a915f01610705565b90565b61016c565b346107605761074a610745366004610714565b61252b565b610752610162565b8061075c81610290565b0390f35b610168565b7f000000000000000000000000000000000000000000000000000000000000000090565b919061079c905f60208501940190610539565b565b346107ce576107ae3660046102cc565b6107ca6107b9610765565b6107c1610162565b91829182610789565b0390f35b610168565b909182601f8301121561080d5781359167ffffffffffffffff831161080857602001926020830284011161080357565b61017c565b610178565b610174565b5f80fd5b908160409103126108245790565b610812565b91606083830312610869575f83013567ffffffffffffffff811161086457610856836108619286016107d3565b939094602001610816565b90565b610170565b61016c565b5190565b60209181520190565b61089a6108a36020936108a8936108918161086e565b93848093610872565b958691016105cb565b6105d6565b0190565b6108d06108dd9492936108c660608401955f8501906105b1565b6020830190610539565b604081840391015261087b565b90565b34610914576109106108fc6108f6366004610829565b91612898565b610907939193610162565b938493846108ac565b0390f35b610168565b61093d61094a94929361093360608401955f8501906105b1565b6020830190610539565b60408184039101526105e0565b90565b346109815761097d610969610963366004610829565b916129b5565b610974939193610162565b93849384610919565b0390f35b610168565b346109b4576109963660046102cc565b61099e612b41565b6109a6610162565b806109b081610290565b0390f35b610168565b7f000000000000000000000000000000000000000000000000000000000000000090565b6109e690610329565b90565b6109f2906109dd565b9052565b9190610a09905f602085019401906109e9565b565b34610a3b57610a1b3660046102cc565b610a37610a266109b9565b610a2e610162565b918291826109f6565b0390f35b610168565b610a4c60055f9061068a565b90565b34610a7f57610a5f3660046102cc565b610a7b610a6a610a40565b610a72610162565b918291826106a7565b0390f35b610168565b610a9060015f9061068a565b90565b34610ac357610aa33660046102cc565b610abf610aae610a84565b610ab6610162565b918291826106a7565b0390f35b610168565b34610af657610ae0610adb366004610714565b612cc4565b610ae8610162565b80610af281610290565b0390f35b610168565b7f000000000000000000000000000000000000000000000000000000000000000090565b34610b4f57610b2f3660046102cc565b610b4b610b3a610afb565b610b42610162565b91829182610789565b0390f35b610168565b5490565b5f5260205f2090565b610b6a81610b54565b821015610b8457610b7c600191610b58565b910201905f90565b610453565b610b99906008610b9e930261066e565b6104a1565b90565b90610bac9154610b89565b90565b5f610bb981610b54565b821015610bd657610bd391610bcd91610b61565b90610ba1565b90565b5f80fd5b34610c0a57610c06610bf5610bf0366004610402565b610baf565b610bfd610162565b91829182610789565b0390f35b610168565b634e487b7160e01b5f525f60045260245ffd5b634e487b7160e01b5f52602260045260245ffd5b9060016002830492168015610c56575b6020831014610c5157565b610c22565b91607f1691610c46565b60209181520190565b5f5260205f2090565b905f9291805490610c8c610c8583610c36565b8094610c60565b916001811690815f14610ce35750600114610ca7575b505050565b610cb49192939450610c69565b915f925b818410610ccb57505001905f8080610ca2565b60018160209295939554848601520191019290610cb8565b92949550505060ff19168252151560200201905f8080610ca2565b90610d0891610c72565b90565b634e487b7160e01b5f52604160045260245ffd5b90610d29906105d6565b810190811067ffffffffffffffff821117610d4357604052565b610d0b565b90610d68610d6192610d58610162565b93848092610cfe565b0383610d1f565b565b905f10610d7d57610d7a90610d48565b90565b610c0f565b610d8e60045f90610d6a565b90565b610da69160208201915f8184039101526105e0565b90565b34610dd957610db93660046102cc565b610dd5610dc4610d82565b610dcc610162565b91829182610d91565b0390f35b610168565b9091604082840312610e38575f82013567ffffffffffffffff8111610e335783610e09918401610180565b929093602082013567ffffffffffffffff8111610e2e57610e2a92016101bf565b9091565b610170565b610170565b61016c565b34610e6f57610e59610e50366004610dde565b9291909161310f565b610e61610162565b80610e6b81610290565b0390f35b610168565b5f80fd5b5f7f4f6e6c79205363686564756c6572000000000000000000000000000000000000910152565b610eac600e602092610872565b610eb581610e78565b0190565b610ece9060208101905f818303910152610e9f565b90565b15610ed857565b610ee0610162565b62461bcd60e51b815280610ef660048201610eb9565b0390fd5b90610f4394939291610f3e33610f38610f327f000000000000000000000000000000000000000000000000000000000000000061052d565b9161052d565b14610ed1565b611533565b565b5090565b90565b610f60610f5b610f6592610f49565b61030a565b6101fe565b90565b5f7f4e6f2063616c6c64617461000000000000000000000000000000000000000000910152565b610f9c600b602092610872565b610fa581610f68565b0190565b610fbe9060208101905f818303910152610f8f565b90565b15610fc857565b610fd0610162565b62461bcd60e51b815280610fe660048201610fa9565b0390fd5b634e487b7160e01b5f52601160045260245ffd5b61100d611013919392936101fe565b926101fe565b9161101f8382026101fe565b92818404149015171561102e57565b610fea565b61103e906002610ffe565b90565b1b90565b9190600861106091029161105a5f1984611041565b92611041565b9181191691161790565b61107e611079611083926101fe565b61030a565b6101fe565b90565b90565b919061109f61109a6110a79361106a565b611086565b908354611045565b9055565b5f90565b6110c1916110bb6110ab565b91611089565b565b5f60016110d5928280820155016110af565b565b905f036110e9576110e7906110c3565b565b610c0f565b5b8181106110fa575050565b806111075f6002936110d7565b016110ef565b90611120905f199060200360080261066e565b8154169055565b9091828110611136575b505050565b61115461114e61114861115f95611033565b92611033565b9261046b565b9182019101906110ee565b5f8080611131565b90680100000000000000008111611190578161118561118e93610467565b90828155611127565b565b610d0b565b5f61119f91611167565b565b905f036111b3576111b190611195565b565b610c0f565b5090565b60016111c891016101fe565b90565b90565b91908110156111de576040020190565b610453565b5f5260205f2090565b5490565b6111f9816111ec565b8210156112135761120b6002916111e3565b910201905f90565b610453565b35611222816106f1565b90565b5f1b90565b9061123b60018060a01b0391611225565b9181191691161790565b61124e90610329565b90565b90565b9061126961126461127092611245565b611251565b825461122a565b9055565b3561127e81610201565b90565b9061128d5f1991611225565b9181191691161790565b906112ac6112a76112b39261106a565b611086565b8254611281565b9055565b906112e2602060016112e8946112da5f82016112d45f8801611218565b90611254565b019201611274565b90611297565b565b91906112fb576112f9916112b7565b565b610c0f565b9081549168010000000000000000831015611330578261132891600161132e950181556111f0565b906112ea565b565b610d0b565b601f602091010490565b5b81811061134b575050565b806113585f6001936110af565b01611340565b9190601f811161136e575b505050565b61137a61139f93610c69565b90602061138684611335565b830193106113a7575b61139890611335565b019061133f565b5f8080611369565b91506113988192905061138f565b906113c5905f199060080261066e565b191690565b816113d4916113b5565b906002021790565b916113e79082610f45565b9067ffffffffffffffff82116114a65761140b826114058554610c36565b8561135e565b5f90601f831160011461143e5791809161142d935f92611432575b50506113ca565b90555b565b90915001355f80611426565b601f1983169161144d85610c69565b925f5b81811061148e57509160029391856001969410611474575b50505002019055611430565b611484910135601f8416906113b5565b90555f8080611468565b91936020600181928787013581550195019201611450565b610d0b565b906114b692916113dc565b565b6114c76114cd919392936101fe565b926101fe565b82018092116114d857565b610fea565b90825f939282370152565b9190611502816114fb81611507956105c2565b80956114dd565b6105d6565b0190565b9392906115296020916115319460408801918883035f8a01526114e8565b940190610546565b565b949192909261155e611546828490610f45565b6115586115525f610f4c565b916101fe565b11610fc1565b6115695f60036111a1565b6115748685906111b8565b9461157e5f610f4c565b5b8061159261158c896101fe565b916101fe565b10156115c5576115c0906115bb6115a960036111cb565b6115b58b8a85916111ce565b90611300565b6111bc565b61157f565b509093506115ef9295506115e89194506115e284869060046114ab565b426114b8565b6005611297565b906115fa60056104e4565b916116317f47a4984a81106a0e849f205d9b393f4ebb250b0c54a80e7d9ba23277afd99e8393611628610162565b9384938461150b565b0390a1565b9061164394939291610efa565b565b5f7f4f6e6c79204175746f6d6174696f6e2072656769737472790000000000000000910152565b6116796018602092610872565b61168281611645565b0190565b61169b9060208101905f81830391015261166c565b90565b156116a557565b6116ad610162565b62461bcd60e51b8152806116c360048201611686565b0390fd5b9061170d91611708336117026116fc7f000000000000000000000000000000000000000000000000000000000000000061052d565b9161052d565b1461169e565b611ed7565b565b6117199054610c36565b90565b5f7f4e6f2070656e64696e6720747261646500000000000000000000000000000000910152565b6117506010602092610872565b6117598161171c565b0190565b6117729060208101905f818303910152611743565b90565b1561177c57565b611784610162565b62461bcd60e51b81528061179a6004820161175d565b0390fd5b5f7f5472616465206578706972656400000000000000000000000000000000000000910152565b6117d2600d602092610872565b6117db8161179e565b0190565b6117f49060208101905f8183039101526117c5565b90565b156117fe57565b611806610162565b62461bcd60e51b81528061181c600482016117df565b0390fd5b5f7f436f6f6c646f776e000000000000000000000000000000000000000000000000910152565b6118546008602092610872565b61185d81611820565b0190565b6118769060208101905f818303910152611847565b90565b1561188057565b611888610162565b62461bcd60e51b81528061189e60048201611861565b0390fd5b6118ab90610d48565b90565b906118c16118ba610162565b9283610d1f565b565b67ffffffffffffffff81116118db5760208091020190565b610d0b565b5f80fd5b5f80fd5b5f80fd5b67ffffffffffffffff811161190a576119066020916105d6565b0190565b610d0b565b9092919261192461191f826118ec565b6118ae565b938185526020850190828401116119405761193e926105cb565b565b6118e8565b9080601f83011215611963578160206119609351910161190f565b90565b610174565b90505190611975826106f1565b565b9050519061198482610201565b565b67ffffffffffffffff81116119a4576119a06020916105d6565b0190565b610d0b565b909291926119be6119b982611986565b6118ae565b938185526020850190828401116119da576119d8926105cb565b565b6118e8565b9080601f830112156119fd578160206119fa935191016119a9565b90565b610174565b91909160e081840312611ade57611a1960e06118ae565b925f82015167ffffffffffffffff8111611ad95781611a39918401611945565b5f850152611a4a8160208401611968565b6020850152611a5c8160408401611977565b6040850152611a6e8160608401611968565b6060850152611a808160808401611977565b608085015260a082015167ffffffffffffffff8111611ad45781611aa59184016119df565b60a085015260c082015167ffffffffffffffff8111611acf57611ac892016119df565b60c0830152565b6118e4565b6118e4565b6118e4565b6118e0565b929190611af7611af2826118c3565b6118ae565b9381855260208086019202810191838311611b4e5781905b838210611b1d575050505050565b815167ffffffffffffffff8111611b4957602091611b3e8784938701611a02565b815201910190611b0f565b610174565b61017c565b9080601f83011215611b7157816020611b6e93519101611ae3565b90565b610174565b611b7f816105ac565b03611b8657565b5f80fd5b90505190611b9782611b76565b565b9190604083820312611bd357611bcc90611bb360406118ae565b93611bc0825f8301611b8a565b5f860152602001611b8a565b6020830152565b6118e0565b9190606083820312611c18575f8301519067ffffffffffffffff8211611c1357611c0781611c10938601611b53565b93602001611b99565b90565b610170565b61016c565b91611c4092611c3360408201935f830190610539565b60208184039101526105e0565b90565b90611c55611c50836118ec565b6118ae565b918252565b611c635f611c43565b90565b611c6e611c5a565b90565b905f9291805490611c8b611c8483610c36565b80946105c2565b916001811690815f14611ce25750600114611ca6575b505050565b611cb39192939450610c69565b915f925b818410611cca57505001905f8080611ca1565b60018160209295939554848601520191019290611cb7565b92949550505060ff19168252151560200201905f8080611ca1565b9091611d17611d259360408401908482035f860152611c71565b9160208184039101526105e0565b90565b611d3d9160208201915f818403910152611c71565b90565b905f91611d57611d4f82610c69565b9283546113ca565b905555565b919290602082105f14611db557601f8411600114611d8557611d7f9293506113ca565b90555b5b565b5090611dab611db0936001611da2611d9c85610c69565b92611335565b8201910161133f565b611d40565b611d82565b50611dec8293611dc6600194610c69565b611de5611dd285611335565b820192601f861680611df7575b50611335565b019061133f565b600202179055611d83565b611e039088860361110d565b5f611ddf565b929091680100000000000000008211611e69576020115f14611e5a57602081105f14611e3e57611e38916113ca565b90555b5b565b60019160ff1916611e4e84610c69565b55600202019055611e3b565b60019150600202019055611e3c565b610d0b565b908154611e7a81610c36565b90818311611ea3575b818310611e91575b50505050565b611e9a93611d5c565b5f808080611e8b565b611eaf83838387611e09565b611e83565b5f611ebe91611e6e565b565b905f03611ed257611ed090611eb4565b565b610c0f565b5050611f9a90611f02611eea600461170f565b611efc611ef65f610f4c565b916101fe565b11611775565b611f2842611f21611f1b611f1660056104e4565b6101fe565b916101fe565b11156117f7565b611f6142611f5a611f54611f4f611f3f60016104e4565b611f4960026104e4565b906114b8565b6101fe565b916101fe565b1015611879565b611f84611f6e60046118a2565b6020611f79826105be565b818301019101611bd8565b611f8f828290613368565b9195909195156105ac565b61206d5750611fb5929350611fad6135fd565b919091613839565b5f14612025576004611ff37f0b281971e52417c358445ccb1564a874f36b91f058f6253ac19776a5fcbd370f91611fea610162565b91829182611d28565b0390a16120015f60036111a1565b61200c5f6004611ec0565b6120175f60056110af565b612022426001611297565b5b565b600461202f611c66565b7fad9abe748a43c3ef267334ca122e3b0090cabc86d32ae1f905cfe6dd5e238b399161206561205c610162565b92839283611cfd565b0390a1612023565b849061209061207a610162565b928392635cf9ce2760e01b845260048401611c1d565b0390fd5b9061209e916116c7565b565b5f7f4f6e6c7920536166650000000000000000000000000000000000000000000000910152565b6120d46009602092610872565b6120dd816120a0565b0190565b6120f69060208101905f8183039101526120c7565b90565b1561210057565b612108610162565b62461bcd60e51b81528061211e600482016120e1565b0390fd5b61216f9061216a3361216461215e6121597f0000000000000000000000000000000000000000000000000000000000000000610335565b61052d565b9161052d565b146120f9565b612171565b565b61217c906002611297565b565b61218790612122565b565b5f90565b606090565b505061219c612189565b506121a561218d565b50426121d56121cf6121ca6121ba60016104e4565b6121c460026104e4565b906114b8565b6101fe565b916101fe565b10612243576121e4600461170f565b6121f66121f05f610f4c565b916101fe565b114261221361220d61220860056104e4565b6101fe565b916101fe565b11158161223b575b5061222d575f9061222a611c66565b90565b600190612238611c66565b90565b90505f61221b565b5f9061224d611c66565b90565b61229d906122983361229261228c6122877f0000000000000000000000000000000000000000000000000000000000000000610335565b61052d565b9161052d565b146120f9565b61241b565b565b90565b6122b66122b16122bb9261229f565b61030a565b6101fe565b90565b6122cd6122d3919392936101fe565b926101fe565b82039182116122de57565b610fea565b919060086123039102916122fd60018060a01b0384611041565b92611041565b9181191691161790565b919061232361231e61232b93611245565b611251565b9083546122e3565b9055565b90565b634e487b7160e01b5f52603160045260245ffd5b5490565b5f5260205f2090565b61235c81612346565b8210156123765761236e60019161234a565b910201905f90565b610453565b5f90565b6123919161238b61237b565b9161230d565b565b61239c81612346565b80156123bd5760019003906123ba6123b48383612353565b9061237f565b55565b612332565b5f7f506f6c696379206e6f7420666f756e6400000000000000000000000000000000910152565b6123f66010602092610872565b6123ff816123c2565b0190565b6124189060208101905f8183039101526123e9565b90565b6124245f610b54565b9061242e5f610f4c565b5b8061244261243c856101fe565b916101fe565b10156125095761245c6124565f8390610b61565b90610ba1565b61246e6124688461052d565b9161052d565b146124815761247c906111bc565b61242f565b6124b76124b06124aa6124bd94956124a45f9161249e60016122a2565b906122be565b90610b61565b90610ba1565b915f610b61565b9061230d565b6124ce6124c95f61232f565b612393565b6125047f7d69543e56287cc6159e1cd00d200f2d86996b94ef9a170c4ec9a31daa6dd2ce916124fb610162565b91829182610789565b0390a1565b612511610162565b62461bcd60e51b81528061252760048201612403565b0390fd5b61253490612250565b565b606090565b9092919261255061254b826118ec565b6118ae565b9381855260208501908284011161256c5761256a926114dd565b565b6118e8565b9080601f8301121561258f5781602061258c9335910161253b565b90565b610174565b909291926125a96125a482611986565b6118ae565b938185526020850190828401116125c5576125c3926114dd565b565b6118e8565b9080601f830112156125e8578160206125e593359101612594565b90565b610174565b91909160e0818403126126c95761260460e06118ae565b925f82013567ffffffffffffffff81116126c45781612624918401612571565b5f8501526126358160208401610705565b60208501526126478160408401610215565b60408501526126598160608401610705565b606085015261266b8160808401610215565b608085015260a082013567ffffffffffffffff81116126bf57816126909184016125ca565b60a085015260c082013567ffffffffffffffff81116126ba576126b392016125ca565b60c0830152565b6118e4565b6118e4565b6118e4565b6118e0565b9291906126e26126dd826118c3565b6118ae565b93818552602080860192028101918383116127395781905b838210612708575050505050565b813567ffffffffffffffff81116127345760209161272987849387016125ed565b8152019101906126fa565b610174565b61017c565b6127499136916126ce565b90565b9050359061275982611b76565b565b91906040838203126127955761278e9061277560406118ae565b93612782825f830161274c565b5f86015260200161274c565b6020830152565b6118e0565b6127a590369061275b565b90565b6127bc6127b76127c192610f49565b61030a565b6102ff565b90565b6127cd906127a8565b90565b6127d8611c5a565b90565b6127e49061030d565b90565b6127f0906127db565b90565b6127fc90610329565b90565b60e01b90565b90602082820312612835575f82015167ffffffffffffffff81116128305761282d9201611945565b90565b610170565b61016c565b612842610162565b3d5f823e3d90fd5b90565b5f7f506f6c696379206661696c656400000000000000000000000000000000000000910152565b61287e600d611c43565b9061288b6020830161284d565b565b612895612874565b90565b6128cf6128db936128d5926128ab612189565b506128b461237b565b506128bd612536565b506128c661218d565b5093909361273e565b9161279a565b90613368565b909161299b575f61291e916128f76128f2856127e7565b6127f3565b61291363a5bea165612907610162565b958694859384936127ff565b835260048301610d91565b03915afa908115612996575f91612974575b509161294361293e8461284a565b6105be565b61295561294f5f610f4c565b916101fe565b14612963575f919291929190565b9091505f919061297161288d565b90565b61299091503d805f833e6129888183610d1f565b810190612805565b5f612930565b61283a565b50506001906129a95f6127c4565b906129b26127d0565b90565b6129e36129ef936129e9926129c8612189565b506129d161237b565b506129da61218d565b5093909361273e565b9161279a565b90613368565b9192909190565b612a3233612a2c612a267f000000000000000000000000000000000000000000000000000000000000000061052d565b9161052d565b14610ed1565b612a3a612abe565b565b5f7f4e6f742065787069726564000000000000000000000000000000000000000000910152565b612a70600b602092610872565b612a7981612a3c565b0190565b612a929060208101905f818303910152612a63565b90565b15612a9c57565b612aa4610162565b62461bcd60e51b815280612aba60048201612a7d565b0390fd5b612ae342612add612ad7612ad260056104e4565b6101fe565b916101fe565b11612a95565b6004612b1b7f6f0251d09876767bbfe460698db462af7fdf940cd38f148c1346d523f0e6624891612b12610162565b91829182611d28565b0390a1612b295f60036111a1565b612b345f6004611ec0565b612b3f5f60056110af565b565b612b496129f6565b565b612b9890612b9333612b8d612b87612b827f0000000000000000000000000000000000000000000000000000000000000000610335565b61052d565b9161052d565b146120f9565b612c51565b565b5f7f506f6c696379207a65726f000000000000000000000000000000000000000000910152565b612bce600b602092610872565b612bd781612b9a565b0190565b612bf09060208101905f818303910152612bc1565b90565b15612bfa57565b612c02610162565b62461bcd60e51b815280612c1860048201612bdb565b0390fd5b9081549168010000000000000000831015612c4c5782612c44916001612c4a95018155612353565b9061230d565b565b610d0b565b612c7681612c6f612c69612c645f6127c4565b61052d565b9161052d565b1415612bf3565b612c89612c825f61232f565b8290612c1c565b612cbf7f1ed14278e1ad1e635937a5a835db93e1dfeb1f3846f7a9105c94a88e89c4b40d91612cb6610162565b91829182610789565b0390a1565b612ccd90612b4b565b565b90612d17939291612d1233612d0c612d067f000000000000000000000000000000000000000000000000000000000000000061052d565b9161052d565b1461169e565b612f0c565b565b5f7f5265676973747279206e6f74207363686564756c657200000000000000000000910152565b612d4d6016602092610872565b612d5681612d19565b0190565b612d6f9060208101905f818303910152612d40565b90565b15612d7957565b612d81610162565b62461bcd60e51b815280612d9760048201612d5a565b0390fd5b9080601f83011215612db957816020612db6933591016126ce565b90565b610174565b9190606083820312612dfe575f8301359067ffffffffffffffff8211612df957612ded81612df6938601612d9b565b9360200161275b565b90565b610170565b61016c565b67ffffffffffffffff8111612e1b5760208091020190565b610d0b565b9190604083820312612e5a57612e5390612e3a60406118ae565b93612e47825f8301610705565b5f860152602001610215565b6020830152565b6118e0565b90929192612e74612e6f82612e03565b6118ae565b938185526040602086019202830192818411612eb357915b838310612e995750505050565b6020604091612ea88486612e20565b815201920191612e8c565b61017c565b612ec3913691612e5f565b90565b91612eef9391612ee19160408501918583035f8701526114e8565b9160208184039101526105e0565b90565b9091612f099260208301925f8185039101526114e8565b90565b612f687f0000000000000000000000000000000000000000000000000000000000000000612f62612f5c7f000000000000000000000000000000000000000000000000000000000000000061052d565b9161052d565b14612d72565b612f8e612f76848690610f45565b612f88612f825f610f4c565b916101fe565b11610fc1565b612fc742612fc0612fba612fb5612fa560016104e4565b612faf60026104e4565b906114b8565b6101fe565b916101fe565b1015611879565b612fd1600461170f565b612fe3612fdd5f610f4c565b916101fe565b116130e9575b612ff68385810190612dbe565b91613010613005838590613368565b9192909192156105ac565b6130c457505061302e9392916130299193909293612eb8565b613839565b5f1461307c57907f0b281971e52417c358445ccb1564a874f36b91f058f6253ac19776a5fcbd370f9161306b613062610162565b92839283612ef2565b0390a1613079426001611297565b5b565b90613085611c66565b916130bc7fad9abe748a43c3ef267334ca122e3b0090cabc86d32ae1f905cfe6dd5e238b39936130b3610162565b93849384612ec6565b0390a161307a565b6130e56130cf610162565b928392635cf9ce2760e01b845260048401611c1d565b0390fd5b6130f45f60036111a1565b6130ff5f6004611ec0565b61310a5f60056110af565b612fe9565b9061311b939291612ccf565b565b91909160408184031261315d57613136835f8301611b8a565b92602082015167ffffffffffffffff81116131585761315592016119df565b90565b610170565b61016c565b5190565b60209181520190565b60200190565b60209181520190565b61319d6131a66020936131ab936131948161086e565b93848093613175565b958691016105cb565b6105d6565b0190565b6131b89061052d565b9052565b6131c5906101fe565b9052565b6131e86131f16020936131f6936131df816105be565b93848093610c60565b958691016105cb565b6105d6565b0190565b6132859160c061327461321a60e084015f8601518582035f87015261317e565b61322c602086015160208601906131af565b61323e604086015160408601906131bc565b613250606086015160608601906131af565b613262608086015160808601906131bc565b60a085015184820360a08601526131c9565b9201519060c08184039101526131c9565b90565b90613292916131fa565b90565b60200190565b906132af6132a883613162565b8092613166565b90816132c06020830284019461316f565b925f915b8383106132d357505050505090565b909192939460206132f56132ef83856001950387528951613288565b97613295565b93019301919392906132c4565b61330b906105ac565b9052565b90602080613331936133275f8201515f860190613302565b0151910190613302565b565b93929061335e6040916133669461335160808901925f8a0190610539565b878203602089015261329b565b94019061330f565b565b9091613372612189565b5061337b61237b565b5061338461218d565b5061338e5f610b54565b916133985f610f4c565b5b806133ac6133a6866101fe565b916101fe565b10156134ad576133d66133d16133cc6133c65f8590610b61565b90610ba1565b6127e7565b6127f3565b5f6357e86eeb916134067f0000000000000000000000000000000000000000000000000000000000000000610335565b90613424869461342f8b613418610162565b978896879586956127ff565b855260048501613333565b03915afa80156134a8575f80929091613481575b5061344e90156105ac565b613461575061345c906111bc565b613399565b945092505061347a6134745f935f610b61565b90610ba1565b9291929190565b61344e92506134a291503d805f833e61349a8183610d1f565b81019061311d565b91613443565b61283a565b505091505060016134bd5f6127c4565b916134c6611c66565b91929190565b606090565b906134e36134de83612e03565b6118ae565b918252565b6134f260406118ae565b90565b5f90565b5f90565b6135056134e8565b90602080836135126134f5565b81520161351d6134f9565b81525050565b61352b6134fd565b90565b5f5b82811061353c57505050565b602090613547613523565b8184015201613530565b9061357661355e836134d1565b9260208061356c8693612e03565b920191039061352e565b565b5190565b9061358682613578565b811015613597576020809102010190565b610453565b906135a69061052d565b9052565b906135b4906101fe565b9052565b906135ef6135e660016135c96134e8565b946135e06135d85f83016104c0565b5f880161359c565b016104e4565b602084016135aa565b565b6135fa906135b8565b90565b6136056134cc565b506136106003610467565b61361981613551565b916136235f610f4c565b5b80613637613631856101fe565b916101fe565b1015613678576136739061366c61365060038390610474565b508661365c84926135f1565b613666838361357c565b5261357c565b51506111bc565b613624565b509050565b63ffffffff60e01b1690565b6136929061367d565b90565b6136be7f095ea7b334ae44009aa867bfb386f5c3b4b443ac6f0ee573fa91c4608fbadfba613689565b90565b6136cb90516101fe565b90565b6136d8905161052d565b90565b906020828203126136f4576136f1915f01611b8a565b90565b61016c565b61370290610f4c565b9052565b634e487b7160e01b5f52602160045260245ffd5b6002111561372457565b613706565b906137338261371a565b565b61373e90613729565b90565b61374a90613735565b9052565b94939160609161378f9461377a6137879361377060808b01945f8c0190610539565b60208a01906136f9565b87820360408901526105e0565b940190613741565b565b5f7f546f6b656e20617070726f76616c206661696c65640000000000000000000000910152565b6137c56015602092610872565b6137ce81613791565b0190565b6137e79060208101905f8183039101526137b8565b90565b156137f157565b6137f9610162565b62461bcd60e51b81528061380f600482016137d2565b0390fd5b9291602061382f6138379360608701908782035f89015261329b565b94019061330f565b565b919290613844612189565b5061384e83613578565b936138585f610f4c565b5b8061386c613866886101fe565b916101fe565b10156139ad5761387d85829061357c565b5190602060046138eb61388e613695565b6138dd6138ba7f00000000000000000000000000000000000000000000000000000000000000006109dd565b6138c58689016136c1565b906138ce610162565b95869488860190815201610553565b848201810382520382610d1f565b926139157f0000000000000000000000000000000000000000000000000000000000000000610335565b6139455f6139298163468721a795016136ce565b9361395082988390613939610162565b9a8b98899788966127ff565b86526004860161374e565b03925af19182156139a85761397592613970915f9161397a575b506137ea565b6111bc565b613859565b61399b915060203d81116139a1575b6139938183610d1f565b8101906136db565b5f61396a565b503d613989565b61283a565b506139ec929450600493506139dd90639396f45960e01b926139cd610162565b9586946020860190815201613813565b60208201810382520382610d1f565b6020613a177f0000000000000000000000000000000000000000000000000000000000000000610335565b63468721a790613a665f613a4a7f00000000000000000000000000000000000000000000000000000000000000006109dd565b93613a7182978390613a5a610162565b998a98899788966127ff565b86526004860161374e565b03925af1908115613ab5575f91613a87575b5090565b613aa8915060203d8111613aae575b613aa08183610d1f565b8101906136db565b5f613a83565b503d613a96565b61283a56fea26469706673582212204db34acc73100ad17fef98316d5dcfe82623b6967e67c5f62f77fef82a367ee864736f6c634300081a0033",
    "linkReferences": {}
  },
  "methodIdentifiers": {
    "addPolicy(address)": "b84ef081",
    "batchTrade()": "aab58ca3",
    "checkPolicies((string,address,uint256,address,uint256,bytes,bytes)[],(bool,bool))": "9958cdec",
    "checkPoliciesVerbose((string,address,uint256,address,uint256,bytes,bytes)[],(bool,bool))": "93106d77",
    "checkUpkeep(bytes)": "6e04ff0d",
    "clearExpired()": "9b43b806",
    "cooldown()": "787a08a6",
    "executeTradeNow((address,uint256)[],bytes)": "f6d688bc",
    "lastExecution()": "b7fc3e51",
    "pendingApprovals(uint256)": "686b656e",
    "pendingTradeData()": "dc5ce33a",
    "performUpkeep(bytes)": "4585e33b",
    "policies(uint256)": "d3e89483",
    "registry()": "7b103999",
    "removePolicy(address)": "78d38d82",
    "safe()": "186f0354",
    "scheduleTrade((address,uint256)[],bytes,uint256)": "15c8d4d9",
    "scheduler()": "d1ad17bf",
    "setCooldown(uint256)": "4fc3f41a",
    "tradeDeadline()": "ac4747db"
  },
  "id": 50
}